{
  "address": "0xFdcd933689837c8173cd86bC3168918629fAe8d7",
  "abi": [
    {
      "inputs": [
        {
          "internalType": "contract IMasterChef",
          "name": "_MASTER_CHEF",
          "type": "address"
        },
        {
          "internalType": "contract IERC20",
          "name": "_sushi",
          "type": "address"
        },
        {
          "internalType": "uint256",
          "name": "_MASTER_PID",
          "type": "uint256"
        }
      ],
      "stateMutability": "nonpayable",
      "type": "constructor"
    },
    {
      "anonymous": false,
      "inputs": [
        {
          "indexed": true,
          "internalType": "address",
          "name": "user",
          "type": "address"
        },
        {
          "indexed": true,
          "internalType": "uint256",
          "name": "pid",
          "type": "uint256"
        },
        {
          "indexed": false,
          "internalType": "uint256",
          "name": "amount",
          "type": "uint256"
        },
        {
          "indexed": true,
          "internalType": "address",
          "name": "to",
          "type": "address"
        }
      ],
      "name": "Deposit",
      "type": "event"
    },
    {
      "anonymous": false,
      "inputs": [
        {
          "indexed": true,
          "internalType": "address",
          "name": "user",
          "type": "address"
        },
        {
          "indexed": true,
          "internalType": "uint256",
          "name": "pid",
          "type": "uint256"
        },
        {
          "indexed": false,
          "internalType": "uint256",
          "name": "amount",
          "type": "uint256"
        },
        {
          "indexed": true,
          "internalType": "address",
          "name": "to",
          "type": "address"
        }
      ],
      "name": "EmergencyWithdraw",
      "type": "event"
    },
    {
      "anonymous": false,
      "inputs": [
        {
          "indexed": true,
          "internalType": "address",
          "name": "user",
          "type": "address"
        },
        {
          "indexed": true,
          "internalType": "uint256",
          "name": "pid",
          "type": "uint256"
        },
        {
          "indexed": false,
          "internalType": "uint256",
          "name": "amount",
          "type": "uint256"
        }
      ],
      "name": "Harvest",
      "type": "event"
    },
    {
      "anonymous": false,
      "inputs": [],
      "name": "LogInit",
      "type": "event"
    },
    {
      "anonymous": false,
      "inputs": [
        {
          "indexed": true,
          "internalType": "uint256",
          "name": "pid",
          "type": "uint256"
        },
        {
          "indexed": false,
          "internalType": "uint256",
          "name": "allocPoint",
          "type": "uint256"
        },
        {
          "indexed": true,
          "internalType": "contract IERC20",
          "name": "lpToken",
          "type": "address"
        },
        {
          "indexed": true,
          "internalType": "contract IRewarder",
          "name": "rewarder",
          "type": "address"
        }
      ],
      "name": "LogPoolAddition",
      "type": "event"
    },
    {
      "anonymous": false,
      "inputs": [
        {
          "indexed": true,
          "internalType": "uint256",
          "name": "pid",
          "type": "uint256"
        },
        {
          "indexed": false,
          "internalType": "uint256",
          "name": "allocPoint",
          "type": "uint256"
        },
        {
          "indexed": true,
          "internalType": "contract IRewarder",
          "name": "rewarder",
          "type": "address"
        },
        {
          "indexed": false,
          "internalType": "bool",
          "name": "overwrite",
          "type": "bool"
        }
      ],
      "name": "LogSetPool",
      "type": "event"
    },
    {
      "anonymous": false,
      "inputs": [
        {
          "indexed": true,
          "internalType": "uint256",
          "name": "pid",
          "type": "uint256"
        },
        {
          "indexed": false,
          "internalType": "uint64",
          "name": "lastRewardBlock",
          "type": "uint64"
        },
        {
          "indexed": false,
          "internalType": "uint256",
          "name": "lpSupply",
          "type": "uint256"
        },
        {
          "indexed": false,
          "internalType": "uint256",
          "name": "accSushiPerShare",
          "type": "uint256"
        }
      ],
      "name": "LogUpdatePool",
      "type": "event"
    },
    {
      "anonymous": false,
      "inputs": [
        {
          "indexed": true,
          "internalType": "address",
          "name": "previousOwner",
          "type": "address"
        },
        {
          "indexed": true,
          "internalType": "address",
          "name": "newOwner",
          "type": "address"
        }
      ],
      "name": "OwnershipTransferred",
      "type": "event"
    },
    {
      "anonymous": false,
      "inputs": [
        {
          "indexed": true,
          "internalType": "address",
          "name": "user",
          "type": "address"
        },
        {
          "indexed": true,
          "internalType": "uint256",
          "name": "pid",
          "type": "uint256"
        },
        {
          "indexed": false,
          "internalType": "uint256",
          "name": "amount",
          "type": "uint256"
        },
        {
          "indexed": true,
          "internalType": "address",
          "name": "to",
          "type": "address"
        }
      ],
      "name": "Withdraw",
      "type": "event"
    },
    {
      "inputs": [],
      "name": "MASTER_CHEF",
      "outputs": [
        {
          "internalType": "contract IMasterChef",
          "name": "",
          "type": "address"
        }
      ],
      "stateMutability": "view",
      "type": "function"
    },
    {
      "inputs": [],
      "name": "MASTER_PID",
      "outputs": [
        {
          "internalType": "uint256",
          "name": "",
          "type": "uint256"
        }
      ],
      "stateMutability": "view",
      "type": "function"
    },
    {
      "inputs": [],
      "name": "SUSHI",
      "outputs": [
        {
          "internalType": "contract IERC20",
          "name": "",
          "type": "address"
        }
      ],
      "stateMutability": "view",
      "type": "function"
    },
    {
      "inputs": [
        {
          "internalType": "uint256",
          "name": "allocPoint",
          "type": "uint256"
        },
        {
          "internalType": "contract IERC20",
          "name": "_lpToken",
          "type": "address"
        },
        {
          "internalType": "contract IRewarder",
          "name": "_rewarder",
          "type": "address"
        }
      ],
      "name": "add",
      "outputs": [],
      "stateMutability": "nonpayable",
      "type": "function"
    },
    {
      "inputs": [
        {
          "internalType": "bytes[]",
          "name": "calls",
          "type": "bytes[]"
        },
        {
          "internalType": "bool",
          "name": "revertOnFail",
          "type": "bool"
        }
      ],
      "name": "batch",
      "outputs": [
        {
          "internalType": "bool[]",
          "name": "successes",
          "type": "bool[]"
        },
        {
          "internalType": "bytes[]",
          "name": "results",
          "type": "bytes[]"
        }
      ],
      "stateMutability": "payable",
      "type": "function"
    },
    {
      "inputs": [],
      "name": "claimOwnership",
      "outputs": [],
      "stateMutability": "nonpayable",
      "type": "function"
    },
    {
      "inputs": [
        {
          "internalType": "uint256",
          "name": "pid",
          "type": "uint256"
        },
        {
          "internalType": "uint256",
          "name": "amount",
          "type": "uint256"
        },
        {
          "internalType": "address",
          "name": "to",
          "type": "address"
        }
      ],
      "name": "deposit",
      "outputs": [],
      "stateMutability": "nonpayable",
      "type": "function"
    },
    {
      "inputs": [
        {
          "internalType": "uint256",
          "name": "pid",
          "type": "uint256"
        },
        {
          "internalType": "address",
          "name": "to",
          "type": "address"
        }
      ],
      "name": "emergencyWithdraw",
      "outputs": [],
      "stateMutability": "nonpayable",
      "type": "function"
    },
    {
      "inputs": [
        {
          "internalType": "uint256",
          "name": "pid",
          "type": "uint256"
        },
        {
          "internalType": "address",
          "name": "to",
          "type": "address"
        }
      ],
      "name": "harvest",
      "outputs": [],
      "stateMutability": "nonpayable",
      "type": "function"
    },
    {
      "inputs": [],
      "name": "harvestFromMasterChef",
      "outputs": [],
      "stateMutability": "nonpayable",
      "type": "function"
    },
    {
      "inputs": [
        {
          "internalType": "contract IERC20",
          "name": "dummyToken",
          "type": "address"
        }
      ],
      "name": "init",
      "outputs": [],
      "stateMutability": "nonpayable",
      "type": "function"
    },
    {
      "inputs": [
        {
          "internalType": "uint256",
          "name": "",
          "type": "uint256"
        }
      ],
      "name": "lpToken",
      "outputs": [
        {
          "internalType": "contract IERC20",
          "name": "",
          "type": "address"
        }
      ],
      "stateMutability": "view",
      "type": "function"
    },
    {
      "inputs": [
        {
          "internalType": "uint256[]",
          "name": "pids",
          "type": "uint256[]"
        }
      ],
      "name": "massUpdatePools",
      "outputs": [],
      "stateMutability": "nonpayable",
      "type": "function"
    },
    {
      "inputs": [
        {
          "internalType": "uint256",
          "name": "_pid",
          "type": "uint256"
        }
      ],
      "name": "migrate",
      "outputs": [],
      "stateMutability": "nonpayable",
      "type": "function"
    },
    {
      "inputs": [],
      "name": "migrator",
      "outputs": [
        {
          "internalType": "contract IMigratorChef",
          "name": "",
          "type": "address"
        }
      ],
      "stateMutability": "view",
      "type": "function"
    },
    {
      "inputs": [],
      "name": "owner",
      "outputs": [
        {
          "internalType": "address",
          "name": "",
          "type": "address"
        }
      ],
      "stateMutability": "view",
      "type": "function"
    },
    {
      "inputs": [],
      "name": "pendingOwner",
      "outputs": [
        {
          "internalType": "address",
          "name": "",
          "type": "address"
        }
      ],
      "stateMutability": "view",
      "type": "function"
    },
    {
      "inputs": [
        {
          "internalType": "uint256",
          "name": "_pid",
          "type": "uint256"
        },
        {
          "internalType": "address",
          "name": "_user",
          "type": "address"
        }
      ],
      "name": "pendingSushi",
      "outputs": [
        {
          "internalType": "uint256",
          "name": "pending",
          "type": "uint256"
        }
      ],
      "stateMutability": "view",
      "type": "function"
    },
    {
      "inputs": [
        {
          "internalType": "contract IERC20",
          "name": "token",
          "type": "address"
        },
        {
          "internalType": "address",
          "name": "from",
          "type": "address"
        },
        {
          "internalType": "address",
          "name": "to",
          "type": "address"
        },
        {
          "internalType": "uint256",
          "name": "amount",
          "type": "uint256"
        },
        {
          "internalType": "uint256",
          "name": "deadline",
          "type": "uint256"
        },
        {
          "internalType": "uint8",
          "name": "v",
          "type": "uint8"
        },
        {
          "internalType": "bytes32",
          "name": "r",
          "type": "bytes32"
        },
        {
          "internalType": "bytes32",
          "name": "s",
          "type": "bytes32"
        }
      ],
      "name": "permitToken",
      "outputs": [],
      "stateMutability": "nonpayable",
      "type": "function"
    },
    {
      "inputs": [
        {
          "internalType": "uint256",
          "name": "",
          "type": "uint256"
        }
      ],
      "name": "poolInfo",
      "outputs": [
        {
          "internalType": "uint128",
          "name": "accSushiPerShare",
          "type": "uint128"
        },
        {
          "internalType": "uint64",
          "name": "lastRewardBlock",
          "type": "uint64"
        },
        {
          "internalType": "uint64",
          "name": "allocPoint",
          "type": "uint64"
        }
      ],
      "stateMutability": "view",
      "type": "function"
    },
    {
      "inputs": [],
      "name": "poolLength",
      "outputs": [
        {
          "internalType": "uint256",
          "name": "pools",
          "type": "uint256"
        }
      ],
      "stateMutability": "view",
      "type": "function"
    },
    {
      "inputs": [
        {
          "internalType": "uint256",
          "name": "",
          "type": "uint256"
        }
      ],
      "name": "rewarder",
      "outputs": [
        {
          "internalType": "contract IRewarder",
          "name": "",
          "type": "address"
        }
      ],
      "stateMutability": "view",
      "type": "function"
    },
    {
      "inputs": [
        {
          "internalType": "uint256",
          "name": "_pid",
          "type": "uint256"
        },
        {
          "internalType": "uint256",
          "name": "_allocPoint",
          "type": "uint256"
        },
        {
          "internalType": "contract IRewarder",
          "name": "_rewarder",
          "type": "address"
        },
        {
          "internalType": "bool",
          "name": "overwrite",
          "type": "bool"
        }
      ],
      "name": "set",
      "outputs": [],
      "stateMutability": "nonpayable",
      "type": "function"
    },
    {
      "inputs": [
        {
          "internalType": "contract IMigratorChef",
          "name": "_migrator",
          "type": "address"
        }
      ],
      "name": "setMigrator",
      "outputs": [],
      "stateMutability": "nonpayable",
      "type": "function"
    },
    {
      "inputs": [],
      "name": "sushiPerBlock",
      "outputs": [
        {
          "internalType": "uint256",
          "name": "amount",
          "type": "uint256"
        }
      ],
      "stateMutability": "view",
      "type": "function"
    },
    {
      "inputs": [],
      "name": "totalAllocPoint",
      "outputs": [
        {
          "internalType": "uint256",
          "name": "",
          "type": "uint256"
        }
      ],
      "stateMutability": "view",
      "type": "function"
    },
    {
      "inputs": [
        {
          "internalType": "address",
          "name": "newOwner",
          "type": "address"
        },
        {
          "internalType": "bool",
          "name": "direct",
          "type": "bool"
        },
        {
          "internalType": "bool",
          "name": "renounce",
          "type": "bool"
        }
      ],
      "name": "transferOwnership",
      "outputs": [],
      "stateMutability": "nonpayable",
      "type": "function"
    },
    {
      "inputs": [
        {
          "internalType": "uint256",
          "name": "pid",
          "type": "uint256"
        }
      ],
      "name": "updatePool",
      "outputs": [
        {
          "components": [
            {
              "internalType": "uint128",
              "name": "accSushiPerShare",
              "type": "uint128"
            },
            {
              "internalType": "uint64",
              "name": "lastRewardBlock",
              "type": "uint64"
            },
            {
              "internalType": "uint64",
              "name": "allocPoint",
              "type": "uint64"
            }
          ],
          "internalType": "struct MasterChefV2.PoolInfo",
          "name": "pool",
          "type": "tuple"
        }
      ],
      "stateMutability": "nonpayable",
      "type": "function"
    },
    {
      "inputs": [
        {
          "internalType": "uint256",
          "name": "",
          "type": "uint256"
        },
        {
          "internalType": "address",
          "name": "",
          "type": "address"
        }
      ],
      "name": "userInfo",
      "outputs": [
        {
          "internalType": "uint256",
          "name": "amount",
          "type": "uint256"
        },
        {
          "internalType": "int256",
          "name": "rewardDebt",
          "type": "int256"
        }
      ],
      "stateMutability": "view",
      "type": "function"
    },
    {
      "inputs": [
        {
          "internalType": "uint256",
          "name": "pid",
          "type": "uint256"
        },
        {
          "internalType": "uint256",
          "name": "amount",
          "type": "uint256"
        },
        {
          "internalType": "address",
          "name": "to",
          "type": "address"
        }
      ],
      "name": "withdraw",
      "outputs": [],
      "stateMutability": "nonpayable",
      "type": "function"
    },
    {
      "inputs": [
        {
          "internalType": "uint256",
          "name": "pid",
          "type": "uint256"
        },
        {
          "internalType": "uint256",
          "name": "amount",
          "type": "uint256"
        },
        {
          "internalType": "address",
          "name": "to",
          "type": "address"
        }
      ],
      "name": "withdrawAndHarvest",
      "outputs": [],
      "stateMutability": "nonpayable",
      "type": "function"
    }
  ],
  "transactionHash": "0x2e2f2bd07961583a56a9ee3eaf0b8f9a462435f510e2495f46b16898298d916b",
  "args": [
    "0x38cC060DF3a0498e978eB756e44BD43CC4958aD9",
    "0x73BE9c8Edf5e951c9a0762EA2b1DE8c8F38B5e91",
    31
  ],
  "solcInputHash": "61d66bbe71b3bad174f4d1599b8c35ce",
  "bytecode": "0x60e06040523480156200001157600080fd5b50604051620031b6380380620031b6833981016040819052620000349162000097565b600080546001600160a01b0319163390811782556040519091907f8be0079c531659141344cd1fd0a4f28419497f9722a3daafe3b4186f6b6457e0908290a36001600160601b0319606093841b81166080529190921b1660a05260c052620000f7565b600080600060608486031215620000ac578283fd5b8351620000b981620000de565b6020850151909350620000cc81620000de565b80925050604084015190509250925092565b6001600160a01b0381168114620000f457600080fd5b50565b60805160601c60a05160601c60c05161305a6200015c60003980610d905280611303528061160e5280611cdd5250806108f55280611a075280611e50525080610ccf5280610d6352806112d65280611c065280611cb05280612156525061305a6000f3fe6080604052600436106101d85760003560e01c806361621aaa11610102578063ab560e1011610095578063d1abb90711610064578063d1abb90714610529578063d2423b5114610549578063e30c39781461056a578063edd8b1701461057f576101d8565b8063ab560e10146104bf578063ab7de098146104d4578063b0bcf42a146104f4578063c346253d14610509576101d8565b806388bba42f116100d157806388bba42f1461043c5780638da5cb5b1461045c5780638dbdbe6d1461047157806393f1a40b14610491576101d8565b806361621aaa146103c557806378ed5d1f146103da5780637c516e94146104075780637cd07e4714610427576101d8565b806319ab453c1161017a5780634e71e0c8116101495780634e71e0c81461034e5780634f70b15a1461036357806351eb05a61461037857806357a5b58c146103a5576101d8565b806319ab453c146102ce57806323cf3118146102ee5780632f940c701461030e578063454b06081461032e576101d8565b80631526fe27116101b65780631526fe271461024a57806317caf6f11461027957806318fccc761461028e578063195426ec146102ae576101d8565b8063078dfbe7146101dd578063081e3eda146101ff5780630ad58d2f1461022a575b600080fd5b3480156101e957600080fd5b506101fd6101f83660046125dc565b610594565b005b34801561020b57600080fd5b50610214610683565b6040516102219190612ee8565b60405180910390f35b34801561023657600080fd5b506101fd6102453660046128fb565b610689565b34801561025657600080fd5b5061026a610265366004612866565b610819565b60405161022193929190612ebe565b34801561028557600080fd5b5061021461085b565b34801561029a57600080fd5b506101fd6102a9366004612896565b610861565b3480156102ba57600080fd5b506102146102c9366004612896565b6109fb565b3480156102da57600080fd5b506101fd6102e93660046126ca565b610bf8565b3480156102fa57600080fd5b506101fd6103093660046126ca565b610e19565b34801561031a57600080fd5b506101fd610329366004612896565b610e65565b34801561033a57600080fd5b506101fd610349366004612866565b610f86565b34801561035a57600080fd5b506101fd611232565b34801561036f57600080fd5b506101fd6112bf565b34801561038457600080fd5b50610398610393366004612866565b611362565b6040516102219190612e85565b3480156103b157600080fd5b506101fd6103c036600461266f565b6115dc565b3480156103d157600080fd5b5061021461160c565b3480156103e657600080fd5b506103fa6103f5366004612866565b611630565b60405161022191906129c9565b34801561041357600080fd5b506101fd610422366004612702565b611657565b34801561043357600080fd5b506103fa6116cb565b34801561044857600080fd5b506101fd610457366004612928565b6116da565b34801561046857600080fd5b506103fa611847565b34801561047d57600080fd5b506101fd61048c3660046128fb565b611856565b34801561049d57600080fd5b506104b16104ac366004612896565b6119e1565b604051610221929190612f30565b3480156104cb57600080fd5b506103fa611a05565b3480156104e057600080fd5b506101fd6104ef3660046128c5565b611a29565b34801561050057600080fd5b50610214611c02565b34801561051557600080fd5b506103fa610524366004612866565b611d75565b34801561053557600080fd5b506101fd6105443660046128fb565b611d82565b61055c610557366004612626565b611fb5565b604051610221929190612a5b565b34801561057657600080fd5b506103fa612145565b34801561058b57600080fd5b506103fa612154565b6000546001600160a01b031633146105c75760405162461bcd60e51b81526004016105be90612cfd565b60405180910390fd5b8115610662576001600160a01b0383161515806105e15750805b6105fd5760405162461bcd60e51b81526004016105be90612c17565b600080546040516001600160a01b03808716939216917f8be0079c531659141344cd1fd0a4f28419497f9722a3daafe3b4186f6b6457e091a3600080546001600160a01b0385166001600160a01b03199182161790915560018054909116905561067e565b600180546001600160a01b0319166001600160a01b0385161790555b505050565b60035490565b610691612574565b61069a84611362565b600085815260066020908152604080832033845290915290208151919250906106ec9064e8d4a51000906106d89087906001600160801b0316612178565b816106df57fe5b60018401549190046121b5565b600182015580546106fd9085612202565b815560058054600091908790811061071157fe5b6000918252602090912001546001600160a01b0316905080156107975781546040516345fb1ba160e11b81526001600160a01b03831691638bf6374291610764918a9133918a9160009190600401612ef1565b600060405180830381600087803b15801561077e57600080fd5b505af1158015610792573d6000803e3d6000fd5b505050505b6107c58486600489815481106107a957fe5b6000918252602090912001546001600160a01b03169190612225565b836001600160a01b031686336001600160a01b03167f8166bf25f8a2b7ed3c85049207da4358d16edbed977d23fa2ee6f0dde3ec2132886040516108099190612ee8565b60405180910390a4505050505050565b6003818154811061082657fe5b6000918252602090912001546001600160801b03811691506001600160401b03600160801b8204811691600160c01b90041683565b60075481565b610869612574565b61087283611362565b6000848152600660209081526040808320338452909152812082518154939450909264e8d4a51000916108ae91906001600160801b0316612178565b816108b557fe5b04905060006108d96108d48460010154846121b590919063ffffffff16565b612313565b600184018390559050801561091c5761091c6001600160a01b037f0000000000000000000000000000000000000000000000000000000000000000168683612225565b60006005878154811061092b57fe5b6000918252602090912001546001600160a01b0316905080156109b05783546040516345fb1ba160e11b81526001600160a01b03831691638bf637429161097d918b9133918c91899190600401612ef1565b600060405180830381600087803b15801561099757600080fd5b505af11580156109ab573d6000803e3d6000fd5b505050505b86336001600160a01b03167f71bab65ced2e5750775a0613be067df48ef06cf92a496ebf7663ae0660924954846040516109ea9190612ee8565b60405180910390a350505050505050565b6000610a05612574565b60038481548110610a1257fe5b600091825260208083206040805160608101825291909301546001600160801b0380821683526001600160401b03600160801b8304811684860152600160c01b90920490911682850152888552600683528385206001600160a01b0389168652909252918320825160048054949650919492169288908110610a9057fe5b6000918252602090912001546040516370a0823160e01b81526001600160a01b03909116906370a0823190610ac99030906004016129c9565b60206040518083038186803b158015610ae157600080fd5b505afa158015610af5573d6000803e3d6000fd5b505050506040513d601f19601f82011682018060405250810190610b19919061287e565b905083602001516001600160401b031643118015610b3657508015155b15610bbf576000610b5d85602001516001600160401b03164361220290919063ffffffff16565b90506000600754610b8d87604001516001600160401b0316610b87610b80611c02565b8690612178565b90612178565b81610b9457fe5b049050610bba83610baa8364e8d4a51000612178565b81610bb157fe5b86919004612339565b935050505b60018301548354610bed916108d49164e8d4a5100090610bdf9087612178565b81610be657fe5b04906121b5565b979650505050505050565b6040516370a0823160e01b81526000906001600160a01b038316906370a0823190610c279033906004016129c9565b60206040518083038186803b158015610c3f57600080fd5b505afa158015610c53573d6000803e3d6000fd5b505050506040513d601f19601f82011682018060405250810190610c77919061287e565b905080610c965760405162461bcd60e51b81526004016105be90612b5c565b610cab6001600160a01b03831633308461235c565b60405163095ea7b360e01b81526001600160a01b0383169063095ea7b390610cf9907f0000000000000000000000000000000000000000000000000000000000000000908590600401612a42565b602060405180830381600087803b158015610d1357600080fd5b505af1158015610d27573d6000803e3d6000fd5b505050506040513d601f19601f82011682018060405250810190610d4b91906126ae565b50604051631c57762b60e31b81526001600160a01b037f0000000000000000000000000000000000000000000000000000000000000000169063e2bbb15890610dba907f0000000000000000000000000000000000000000000000000000000000000000908590600401612f30565b600060405180830381600087803b158015610dd457600080fd5b505af1158015610de8573d6000803e3d6000fd5b50506040517f98a9bd3b7a617581fc53b1e2992534e0e0cb5091c9d44aa1a7fc978f706caa83925060009150a15050565b6000546001600160a01b03163314610e435760405162461bcd60e51b81526004016105be90612cfd565b600280546001600160a01b0319166001600160a01b0392909216919091179055565b60008281526006602090815260408083203384529091528120805482825560018201839055600580549293919286908110610e9c57fe5b6000918252602090912001546001600160a01b031690508015610f21576040516345fb1ba160e11b81526001600160a01b03821690638bf6374290610eee908890339089906000908190600401612ef1565b600060405180830381600087803b158015610f0857600080fd5b505af1158015610f1c573d6000803e3d6000fd5b505050505b610f338483600488815481106107a957fe5b836001600160a01b031685336001600160a01b03167f2cac5e20e1541d836381527a43f651851e302817b71dc8e810284e69210c1c6b85604051610f779190612ee8565b60405180910390a45050505050565b6002546001600160a01b0316610fae5760405162461bcd60e51b81526004016105be90612d9e565b600060048281548110610fbd57fe5b60009182526020822001546040516370a0823160e01b81526001600160a01b03909116925082906370a0823190610ff89030906004016129c9565b60206040518083038186803b15801561101057600080fd5b505afa158015611024573d6000803e3d6000fd5b505050506040513d601f19601f82011682018060405250810190611048919061287e565b60025460405163095ea7b360e01b81529192506001600160a01b038085169263095ea7b39261107d9216908590600401612a42565b602060405180830381600087803b15801561109757600080fd5b505af11580156110ab573d6000803e3d6000fd5b505050506040513d601f19601f820116820180604052508101906110cf91906126ae565b5060025460405163ce5494bb60e01b81526000916001600160a01b03169063ce5494bb906111019086906004016129c9565b602060405180830381600087803b15801561111b57600080fd5b505af115801561112f573d6000803e3d6000fd5b505050506040513d601f19601f8201168201806040525081019061115391906126e6565b6040516370a0823160e01b81529091506001600160a01b038216906370a08231906111829030906004016129c9565b60206040518083038186803b15801561119a57600080fd5b505afa1580156111ae573d6000803e3d6000fd5b505050506040513d601f19601f820116820180604052508101906111d2919061287e565b82146111f05760405162461bcd60e51b81526004016105be90612c46565b80600485815481106111fe57fe5b9060005260206000200160006101000a8154816001600160a01b0302191690836001600160a01b0316021790555050505050565b6001546001600160a01b031633811461125d5760405162461bcd60e51b81526004016105be90612d32565b600080546040516001600160a01b03808516939216917f8be0079c531659141344cd1fd0a4f28419497f9722a3daafe3b4186f6b6457e091a3600080546001600160a01b039092166001600160a01b0319928316179055600180549091169055565b604051631c57762b60e31b81526001600160a01b037f0000000000000000000000000000000000000000000000000000000000000000169063e2bbb1589061132e907f000000000000000000000000000000000000000000000000000000000000000090600090600401612f30565b600060405180830381600087803b15801561134857600080fd5b505af115801561135c573d6000803e3d6000fd5b50505050565b61136a612574565b6003828154811061137757fe5b60009182526020918290206040805160608101825292909101546001600160801b03811683526001600160401b03600160801b82048116948401859052600160c01b909104169082015291504311156115d7576000600483815481106113d957fe5b6000918252602090912001546040516370a0823160e01b81526001600160a01b03909116906370a08231906114129030906004016129c9565b60206040518083038186803b15801561142a57600080fd5b505afa15801561143e573d6000803e3d6000fd5b505050506040513d601f19601f82011682018060405250810190611462919061287e565b905080156114fb57600061148c83602001516001600160401b03164361220290919063ffffffff16565b905060006007546114af85604001516001600160401b0316610b87610b80611c02565b816114b657fe5b0490506114ed6114dc846114cf8464e8d4a51000612178565b816114d657fe5b0461244d565b85516001600160801b031690612476565b6001600160801b0316845250505b611504436124a5565b6001600160401b03166020830152600380548391908590811061152357fe5b6000918252602091829020835191018054848401516040958601516001600160801b03199092166001600160801b039094169390931767ffffffffffffffff60801b1916600160801b6001600160401b0394851602176001600160c01b0316600160c01b93909116929092029190911790558301518351915185927f0fc9545022a542541ad085d091fb09a2ab36fee366a4576ab63714ea907ad353926115cd9290918691612f3e565b60405180910390a2505b919050565b8060005b8181101561135c576116038484838181106115f757fe5b90506020020135611362565b506001016115e0565b7f000000000000000000000000000000000000000000000000000000000000000081565b6004818154811061163d57fe5b6000918252602090912001546001600160a01b0316905081565b60405163d505accf60e01b81526001600160a01b0389169063d505accf9061168f908a908a908a908a908a908a908a90600401612a01565b600060405180830381600087803b1580156116a957600080fd5b505af11580156116bd573d6000803e3d6000fd5b505050505050505050505050565b6002546001600160a01b031681565b6000546001600160a01b031633146117045760405162461bcd60e51b81526004016105be90612cfd565b6117438361173d6003878154811061171857fe5b60009182526020909120015460075490600160c01b90046001600160401b0316612202565b90612339565b60075561174f836124a5565b6003858154811061175c57fe5b9060005260206000200160000160186101000a8154816001600160401b0302191690836001600160401b0316021790555080156117d05781600585815481106117a157fe5b9060005260206000200160006101000a8154816001600160a01b0302191690836001600160a01b031602179055505b806117fc57600584815481106117e257fe5b6000918252602090912001546001600160a01b03166117fe565b815b6001600160a01b0316847f95895a6ab1df54420d241b55243258a33e61b2194db66c1179ec521aae8e18658584604051611839929190612f20565b60405180910390a350505050565b6000546001600160a01b031681565b61185e612574565b61186784611362565b60008581526006602090815260408083206001600160a01b038716845290915290208054919250906118999085612339565b815581516118d09064e8d4a51000906118bc9087906001600160801b0316612178565b816118c357fe5b60018401549190046124ce565b81600101819055506000600586815481106118e757fe5b6000918252602090912001546001600160a01b03169050801561196d5781546040516345fb1ba160e11b81526001600160a01b03831691638bf637429161193a918a918991829160009190600401612ef1565b600060405180830381600087803b15801561195457600080fd5b505af1158015611968573d6000803e3d6000fd5b505050505b61199d33308760048a8154811061198057fe5b6000918252602090912001546001600160a01b031692919061235c565b836001600160a01b031686336001600160a01b03167f02d7e648dd130fc184d383e55bb126ac4c9c60e8f94bf05acdf557ba2d540b47886040516108099190612ee8565b60066020908152600092835260408084209091529082529020805460019091015482565b7f000000000000000000000000000000000000000000000000000000000000000081565b6000546001600160a01b03163314611a535760405162461bcd60e51b81526004016105be90612cfd565b6007544390611a629085612339565b6007556004805460018181019092557f8a35acfbc15ff81a39ae7d344fd709f28e8600b4aa8c65c6b64bfe7fe36bd19b0180546001600160a01b038087166001600160a01b03199283161790925560058054938401815560009081527f036b6384b5eca791c62761152d0c79bb0604c104a5fb6f4eb0703f3154bb3db0909301805492861692909116919091179055604080516060810190915290815260039060208101611b0f846124a5565b6001600160401b03168152602001611b26876124a5565b6001600160401b039081169091528254600181810185556000948552602094859020845192018054958501516040909501518416600160c01b026001600160c01b0395909416600160801b0267ffffffffffffffff60801b196001600160801b039094166001600160801b0319909716969096179290921694909417929092161790556004546001600160a01b038085169290861691611bc591612202565b7f81ee0f8c5c46e2cb41984886f77a84181724abb86c32a5f6de539b07509d45e587604051611bf49190612ee8565b60405180910390a450505050565b60007f00000000000000000000000000000000000000000000000000000000000000006001600160a01b03166317caf6f16040518163ffffffff1660e01b815260040160206040518083038186803b158015611c5d57600080fd5b505afa158015611c71573d6000803e3d6000fd5b505050506040513d601f19601f82011682018060405250810190611c95919061287e565b604051631526fe2760e01b8152611d68906001600160a01b037f00000000000000000000000000000000000000000000000000000000000000001690631526fe2790611d05907f000000000000000000000000000000000000000000000000000000000000000090600401612ee8565b60806040518083038186803b158015611d1d57600080fd5b505afa158015611d31573d6000803e3d6000fd5b505050506040513d601f19601f82011682018060405250810190611d559190612814565b60200151678ac7230489e8000090612178565b81611d6f57fe5b04905090565b6005818154811061163d57fe5b611d8a612574565b611d9384611362565b6000858152600660209081526040808320338452909152812082518154939450909264e8d4a5100091611dcf91906001600160801b0316612178565b81611dd657fe5b0490506000611df56108d48460010154846121b590919063ffffffff16565b9050611e3064e8d4a51000611e2086600001516001600160801b03168961217890919063ffffffff16565b81611e2757fe5b849190046121b5565b60018401558254611e419087612202565b8355611e776001600160a01b037f0000000000000000000000000000000000000000000000000000000000000000168683612225565b600060058881548110611e8657fe5b6000918252602090912001546001600160a01b031690508015611f0b5783546040516345fb1ba160e11b81526001600160a01b03831691638bf6374291611ed8918c9133918c91899190600401612ef1565b600060405180830381600087803b158015611ef257600080fd5b505af1158015611f06573d6000803e3d6000fd5b505050505b611f1d868860048b815481106107a957fe5b856001600160a01b031688336001600160a01b03167f8166bf25f8a2b7ed3c85049207da4358d16edbed977d23fa2ee6f0dde3ec21328a604051611f619190612ee8565b60405180910390a487336001600160a01b03167f71bab65ced2e5750775a0613be067df48ef06cf92a496ebf7663ae066092495484604051611fa39190612ee8565b60405180910390a35050505050505050565b606080836001600160401b0381118015611fce57600080fd5b50604051908082528060200260200182016040528015611ff8578160200160208202803683370190505b509150836001600160401b038111801561201157600080fd5b5060405190808252806020026020018201604052801561204557816020015b60608152602001906001900390816120305790505b50905060005b8481101561213c57600060603088888581811061206457fe5b90506020028101906120769190612f68565b60405161208492919061299d565b600060405180830381855af49150503d80600081146120bf576040519150601f19603f3d011682016040523d82523d6000602084013e6120c4565b606091505b509150915081806120d3575085155b6120dc82612514565b906120fa5760405162461bcd60e51b81526004016105be9190612af5565b508185848151811061210857fe5b6020026020010190151590811515815250508084848151811061212757fe5b6020908102919091010152505060010161204b565b50935093915050565b6001546001600160a01b031681565b7f000000000000000000000000000000000000000000000000000000000000000081565b60008115806121935750508082028282828161219057fe5b04145b6121af5760405162461bcd60e51b81526004016105be90612e4e565b92915050565b60008183038183128015906121ca5750838113155b806121df57506000831280156121df57508381135b6121fb5760405162461bcd60e51b81526004016105be90612dd5565b9392505050565b808203828111156121af5760405162461bcd60e51b81526004016105be90612b08565b60006060846001600160a01b031663a9059cbb858560405160240161224b929190612a42565b6040516020818303038152906040529060e01b6020820180516001600160e01b03838183161783525050505060405161228491906129ad565b6000604051808303816000865af19150503d80600081146122c1576040519150601f19603f3d011682016040523d82523d6000602084013e6122c6565b606091505b50915091508180156122f05750805115806122f05750808060200190518101906122f091906126ae565b61230c5760405162461bcd60e51b81526004016105be90612b9f565b5050505050565b6000808212156123355760405162461bcd60e51b81526004016105be90612b37565b5090565b818101818110156121af5760405162461bcd60e51b81526004016105be90612cc6565b60006060856001600160a01b03166323b872dd868686604051602401612384939291906129dd565b6040516020818303038152906040529060e01b6020820180516001600160e01b0383818316178352505050506040516123bd91906129ad565b6000604051808303816000865af19150503d80600081146123fa576040519150601f19603f3d011682016040523d82523d6000602084013e6123ff565b606091505b509150915081801561242957508051158061242957508080602001905181019061242991906126ae565b6124455760405162461bcd60e51b81526004016105be90612e19565b505050505050565b60006001600160801b038211156123355760405162461bcd60e51b81526004016105be90612c8f565b8181016001600160801b0380831690821610156121af5760405162461bcd60e51b81526004016105be90612cc6565b60006001600160401b038211156123355760405162461bcd60e51b81526004016105be90612d67565b60008282018183128015906124e35750838112155b806124f857506000831280156124f857508381125b6121fb5760405162461bcd60e51b81526004016105be90612bd6565b606060448251101561255a575060408051808201909152601d81527f5472616e73616374696f6e2072657665727465642073696c656e746c7900000060208201526115d7565b600482019150818060200190518101906121af9190612789565b604080516060810182526000808252602082018190529181019190915290565b60008083601f8401126125a5578182fd5b5081356001600160401b038111156125bb578182fd5b60208301915083602080830285010111156125d557600080fd5b9250929050565b6000806000606084860312156125f0578283fd5b83356125fb81612ffe565b9250602084013561260b81613016565b9150604084013561261b81613016565b809150509250925092565b60008060006040848603121561263a578283fd5b83356001600160401b0381111561264f578384fd5b61265b86828701612594565b909450925050602084013561261b81613016565b60008060208385031215612681578182fd5b82356001600160401b03811115612696578283fd5b6126a285828601612594565b90969095509350505050565b6000602082840312156126bf578081fd5b81516121fb81613016565b6000602082840312156126db578081fd5b81356121fb81612ffe565b6000602082840312156126f7578081fd5b81516121fb81612ffe565b600080600080600080600080610100898b03121561271e578384fd5b883561272981612ffe565b9750602089013561273981612ffe565b9650604089013561274981612ffe565b9550606089013594506080890135935060a089013560ff8116811461276c578384fd5b979a969950949793969295929450505060c08201359160e0013590565b60006020828403121561279a578081fd5b81516001600160401b03808211156127b0578283fd5b818401915084601f8301126127c3578283fd5b8151818111156127d1578384fd5b6127e4601f8201601f1916602001612fac565b91508082528560208285010111156127fa578384fd5b61280b816020840160208601612fd2565b50949350505050565b600060808284031215612825578081fd5b61282f6080612fac565b825161283a81612ffe565b808252506020830151602082015260408301516040820152606083015160608201528091505092915050565b600060208284031215612877578081fd5b5035919050565b60006020828403121561288f578081fd5b5051919050565b600080604083850312156128a8578182fd5b8235915060208301356128ba81612ffe565b809150509250929050565b6000806000606084860312156128d9578081fd5b8335925060208401356128eb81612ffe565b9150604084013561261b81612ffe565b60008060006060848603121561290f578081fd5b8335925060208401359150604084013561261b81612ffe565b6000806000806080858703121561293d578182fd5b8435935060208501359250604085013561295681612ffe565b9150606085013561296681613016565b939692955090935050565b60008151808452612989816020860160208601612fd2565b601f01601f19169290920160200192915050565b6000828483379101908152919050565b600082516129bf818460208701612fd2565b9190910192915050565b6001600160a01b0391909116815260200190565b6001600160a01b039384168152919092166020820152604081019190915260600190565b6001600160a01b0397881681529590961660208601526040850193909352606084019190915260ff16608083015260a082015260c081019190915260e00190565b6001600160a01b03929092168252602082015260400190565b604080825283519082018190526000906020906060840190828701845b82811015612a96578151151584529284019290840190600101612a78565b50505083810382850152808551612aad8184612ee8565b91508192508381028201848801865b83811015612ae6578583038552612ad4838351612971565b94870194925090860190600101612abc565b50909998505050505050505050565b6000602082526121fb6020830184612971565b602080825260159082015274426f72696e674d6174683a20556e646572666c6f7760581b604082015260600190565b6020808252600b908201526a0496e7465676572203c20360ac1b604082015260600190565b60208082526023908201527f4d61737465724368656656323a2042616c616e6365206d75737420657863656560408201526206420360ec1b606082015260800190565b6020808252601c908201527f426f72696e6745524332303a205472616e73666572206661696c656400000000604082015260600190565b60208082526021908201527f5369676e6564536166654d6174683a206164646974696f6e206f766572666c6f6040820152607760f81b606082015260800190565b6020808252601590820152744f776e61626c653a207a65726f206164647265737360581b604082015260600190565b60208082526029908201527f4d61737465724368656656323a206d696772617465642062616c616e6365206d6040820152680eae6e840dac2e8c6d60bb1b606082015260800190565b6020808252601c908201527f426f72696e674d6174683a2075696e74313238204f766572666c6f7700000000604082015260600190565b60208082526018908201527f426f72696e674d6174683a20416464204f766572666c6f770000000000000000604082015260600190565b6020808252818101527f4f776e61626c653a2063616c6c6572206973206e6f7420746865206f776e6572604082015260600190565b6020808252818101527f4f776e61626c653a2063616c6c657220213d2070656e64696e67206f776e6572604082015260600190565b6020808252601b908201527f426f72696e674d6174683a2075696e743634204f766572666c6f770000000000604082015260600190565b6020808252601d908201527f4d61737465724368656656323a206e6f206d69677261746f7220736574000000604082015260600190565b60208082526024908201527f5369676e6564536166654d6174683a207375627472616374696f6e206f766572604082015263666c6f7760e01b606082015260800190565b6020808252818101527f426f72696e6745524332303a205472616e7366657246726f6d206661696c6564604082015260600190565b60208082526018908201527f426f72696e674d6174683a204d756c204f766572666c6f770000000000000000604082015260600190565b81516001600160801b031681526020808301516001600160401b0390811691830191909152604092830151169181019190915260600190565b6001600160801b039390931683526001600160401b03918216602084015216604082015260600190565b90815260200190565b9485526001600160a01b0393841660208601529190921660408401526060830191909152608082015260a00190565b9182521515602082015260400190565b918252602082015260400190565b6001600160401b0393909316835260208301919091526001600160801b0316604082015260600190565b6000808335601e19843603018112612f7e578283fd5b8301803591506001600160401b03821115612f97578283fd5b6020019150368190038213156125d557600080fd5b6040518181016001600160401b0381118282101715612fca57600080fd5b604052919050565b60005b83811015612fed578181015183820152602001612fd5565b8381111561135c5750506000910152565b6001600160a01b038116811461301357600080fd5b50565b801515811461301357600080fdfea2646970667358221220e162928b094e6963f99e1df25d54348506f5df972c2ee088f2c9ba57774746f164736f6c634300060c0033",
  "devdoc": {
    "kind": "dev",
    "methods": {
      "add(uint256,address,address)": {
        "params": {
          "_lpToken": "Address of the LP ERC-20 token.",
          "_rewarder": "Address of the rewarder delegate.",
          "allocPoint": "AP of the new pool."
        }
      },
      "constructor": {
        "params": {
          "_MASTER_CHEF": "The SushiSwap MCV1 contract address.",
          "_MASTER_PID": "The pool ID of the dummy token on the base MCV1 contract.",
          "_sushi": "The SUSHI token contract address."
        }
      },
      "deposit(uint256,uint256,address)": {
        "params": {
          "amount": "LP token amount to deposit.",
          "pid": "The index of the pool. See `poolInfo`.",
          "to": "The receiver of `amount` deposit benefit."
        }
      },
      "emergencyWithdraw(uint256,address)": {
        "params": {
          "pid": "The index of the pool. See `poolInfo`.",
          "to": "Receiver of the LP tokens."
        }
      },
      "harvest(uint256,address)": {
        "params": {
          "pid": "The index of the pool. See `poolInfo`.",
          "to": "Receiver of SUSHI rewards."
        }
      },
      "init(address)": {
        "params": {
          "dummyToken": "The address of the ERC-20 token to deposit into MCV1."
        }
      },
      "massUpdatePools(uint256[])": {
        "params": {
          "pids": "Pool IDs of all to be updated. Make sure to update all active pools."
        }
      },
      "migrate(uint256)": {
        "params": {
          "_pid": "The index of the pool. See `poolInfo`."
        }
      },
      "pendingSushi(uint256,address)": {
        "params": {
          "_pid": "The index of the pool. See `poolInfo`.",
          "_user": "Address of user."
        },
        "returns": {
          "pending": "SUSHI reward for a given user."
        }
      },
      "set(uint256,uint256,address,bool)": {
        "params": {
          "_allocPoint": "New AP of the pool.",
          "_pid": "The index of the pool. See `poolInfo`.",
          "_rewarder": "Address of the rewarder delegate.",
          "overwrite": "True if _rewarder should be `set`. Otherwise `_rewarder` is ignored."
        }
      },
      "setMigrator(address)": {
        "params": {
          "_migrator": "The contract address to set."
        }
      },
      "updatePool(uint256)": {
        "params": {
          "pid": "The index of the pool. See `poolInfo`."
        },
        "returns": {
          "pool": "Returns the pool that was updated."
        }
      },
      "withdraw(uint256,uint256,address)": {
        "params": {
          "amount": "LP token amount to withdraw.",
          "pid": "The index of the pool. See `poolInfo`.",
          "to": "Receiver of the LP tokens."
        }
      },
      "withdrawAndHarvest(uint256,uint256,address)": {
        "params": {
          "amount": "LP token amount to withdraw.",
          "pid": "The index of the pool. See `poolInfo`.",
          "to": "Receiver of the LP tokens and SUSHI rewards."
        }
      }
    },
    "stateVariables": {
      "totalAllocPoint": {
        "details": "Total allocation points. Must be the sum of all allocation points in all pools."
      }
    },
    "version": 1
  },
  "userdoc": {
    "kind": "user",
    "methods": {
      "MASTER_CHEF()": {
        "notice": "Address of MCV1 contract."
      },
      "MASTER_PID()": {
        "notice": "The index of MCV2 master pool in MCV1."
      },
      "SUSHI()": {
        "notice": "Address of SUSHI contract."
      },
      "add(uint256,address,address)": {
        "notice": "Add a new LP to the pool. Can only be called by the owner. DO NOT add the same LP token more than once. Rewards will be messed up if you do."
      },
      "deposit(uint256,uint256,address)": {
        "notice": "Deposit LP tokens to MCV2 for SUSHI allocation."
      },
      "emergencyWithdraw(uint256,address)": {
        "notice": "Withdraw without caring about rewards. EMERGENCY ONLY."
      },
      "harvest(uint256,address)": {
        "notice": "Harvest proceeds for transaction sender to `to`."
      },
      "harvestFromMasterChef()": {
        "notice": "Harvests SUSHI from `MASTER_CHEF` MCV1 and pool `MASTER_PID` to this MCV2 contract."
      },
      "init(address)": {
        "notice": "Deposits a dummy token to `MASTER_CHEF` MCV1. This is required because MCV1 holds the minting rights for SUSHI. Any balance of transaction sender in `dummyToken` is transferred. The allocation point for the pool on MCV1 is the total allocation point for all pools that receive double incentives."
      },
      "lpToken(uint256)": {
        "notice": "Address of the LP token for each MCV2 pool."
      },
      "massUpdatePools(uint256[])": {
        "notice": "Update reward variables for all pools. Be careful of gas spending!"
      },
      "migrate(uint256)": {
        "notice": "Migrate LP token to another LP contract through the `migrator` contract."
      },
      "pendingSushi(uint256,address)": {
        "notice": "View function to see pending SUSHI on frontend."
      },
      "poolInfo(uint256)": {
        "notice": "Info of each MCV2 pool."
      },
      "poolLength()": {
        "notice": "Returns the number of MCV2 pools."
      },
      "rewarder(uint256)": {
        "notice": "Address of each `IRewarder` contract in MCV2."
      },
      "set(uint256,uint256,address,bool)": {
        "notice": "Update the given pool's SUSHI allocation point and `IRewarder` contract. Can only be called by the owner."
      },
      "setMigrator(address)": {
        "notice": "Set the `migrator` contract. Can only be called by the owner."
      },
      "sushiPerBlock()": {
        "notice": "Calculates and returns the `amount` of SUSHI per block."
      },
      "updatePool(uint256)": {
        "notice": "Update reward variables of the given pool."
      },
      "userInfo(uint256,address)": {
        "notice": "Info of each user that stakes LP tokens."
      },
      "withdraw(uint256,uint256,address)": {
        "notice": "Withdraw LP tokens from MCV2."
      },
      "withdrawAndHarvest(uint256,uint256,address)": {
        "notice": "Withdraw LP tokens from MCV2 and harvest proceeds for transaction sender to `to`."
      }
    },
    "notice": "The (older) MasterChef contract gives out a constant number of SUSHI tokens per block. It is the only address with minting rights for SUSHI. The idea for this MasterChef V2 (MCV2) contract is therefore to be the owner of a dummy token that is deposited into the MasterChef V1 (MCV1) contract. The allocation point for this pool on MCV1 is the total allocation point for all pools that receive double incentives.",
    "version": 1
  },
  "storageLayout": {
    "storage": [
      {
        "astId": 149,
        "contract": "contracts/MasterChefV2.sol:MasterChefV2",
        "label": "owner",
        "offset": 0,
        "slot": "0",
        "type": "t_address"
      },
      {
        "astId": 151,
        "contract": "contracts/MasterChefV2.sol:MasterChefV2",
        "label": "pendingOwner",
        "offset": 0,
        "slot": "1",
        "type": "t_address"
      },
      {
        "astId": 898,
        "contract": "contracts/MasterChefV2.sol:MasterChefV2",
        "label": "migrator",
        "offset": 0,
        "slot": "2",
        "type": "t_contract(IMigratorChef)858"
      },
      {
        "astId": 902,
        "contract": "contracts/MasterChefV2.sol:MasterChefV2",
        "label": "poolInfo",
        "offset": 0,
        "slot": "3",
        "type": "t_array(t_struct(PoolInfo)887_storage)dyn_storage"
      },
      {
        "astId": 906,
        "contract": "contracts/MasterChefV2.sol:MasterChefV2",
        "label": "lpToken",
        "offset": 0,
        "slot": "4",
        "type": "t_array(t_contract(IERC20)337)dyn_storage"
      },
      {
        "astId": 910,
        "contract": "contracts/MasterChefV2.sol:MasterChefV2",
        "label": "rewarder",
        "offset": 0,
        "slot": "5",
        "type": "t_array(t_contract(IRewarder)2167)dyn_storage"
      },
      {
        "astId": 917,
        "contract": "contracts/MasterChefV2.sol:MasterChefV2",
        "label": "userInfo",
        "offset": 0,
        "slot": "6",
        "type": "t_mapping(t_uint256,t_mapping(t_address,t_struct(UserInfo)880_storage))"
      },
      {
        "astId": 920,
        "contract": "contracts/MasterChefV2.sol:MasterChefV2",
        "label": "totalAllocPoint",
        "offset": 0,
        "slot": "7",
        "type": "t_uint256"
      }
    ],
    "types": {
      "t_address": {
        "encoding": "inplace",
        "label": "address",
        "numberOfBytes": "20"
      },
      "t_array(t_contract(IERC20)337)dyn_storage": {
        "base": "t_contract(IERC20)337",
        "encoding": "dynamic_array",
        "label": "contract IERC20[]",
        "numberOfBytes": "32"
      },
      "t_array(t_contract(IRewarder)2167)dyn_storage": {
        "base": "t_contract(IRewarder)2167",
        "encoding": "dynamic_array",
        "label": "contract IRewarder[]",
        "numberOfBytes": "32"
      },
      "t_array(t_struct(PoolInfo)887_storage)dyn_storage": {
        "base": "t_struct(PoolInfo)887_storage",
        "encoding": "dynamic_array",
        "label": "struct MasterChefV2.PoolInfo[]",
        "numberOfBytes": "32"
      },
      "t_contract(IERC20)337": {
        "encoding": "inplace",
        "label": "contract IERC20",
        "numberOfBytes": "20"
      },
      "t_contract(IMigratorChef)858": {
        "encoding": "inplace",
        "label": "contract IMigratorChef",
        "numberOfBytes": "20"
      },
      "t_contract(IRewarder)2167": {
        "encoding": "inplace",
        "label": "contract IRewarder",
        "numberOfBytes": "20"
      },
      "t_int256": {
        "encoding": "inplace",
        "label": "int256",
        "numberOfBytes": "32"
      },
      "t_mapping(t_address,t_struct(UserInfo)880_storage)": {
        "encoding": "mapping",
        "key": "t_address",
        "label": "mapping(address => struct MasterChefV2.UserInfo)",
        "numberOfBytes": "32",
        "value": "t_struct(UserInfo)880_storage"
      },
      "t_mapping(t_uint256,t_mapping(t_address,t_struct(UserInfo)880_storage))": {
        "encoding": "mapping",
        "key": "t_uint256",
        "label": "mapping(uint256 => mapping(address => struct MasterChefV2.UserInfo))",
        "numberOfBytes": "32",
        "value": "t_mapping(t_address,t_struct(UserInfo)880_storage)"
      },
      "t_struct(PoolInfo)887_storage": {
        "encoding": "inplace",
        "label": "struct MasterChefV2.PoolInfo",
        "members": [
          {
            "astId": 882,
            "contract": "contracts/MasterChefV2.sol:MasterChefV2",
            "label": "accSushiPerShare",
            "offset": 0,
            "slot": "0",
            "type": "t_uint128"
          },
          {
            "astId": 884,
            "contract": "contracts/MasterChefV2.sol:MasterChefV2",
            "label": "lastRewardBlock",
            "offset": 16,
            "slot": "0",
            "type": "t_uint64"
          },
          {
            "astId": 886,
            "contract": "contracts/MasterChefV2.sol:MasterChefV2",
            "label": "allocPoint",
            "offset": 24,
            "slot": "0",
            "type": "t_uint64"
          }
        ],
        "numberOfBytes": "32"
      },
      "t_struct(UserInfo)880_storage": {
        "encoding": "inplace",
        "label": "struct MasterChefV2.UserInfo",
        "members": [
          {
            "astId": 877,
            "contract": "contracts/MasterChefV2.sol:MasterChefV2",
            "label": "amount",
            "offset": 0,
            "slot": "0",
            "type": "t_uint256"
          },
          {
            "astId": 879,
            "contract": "contracts/MasterChefV2.sol:MasterChefV2",
            "label": "rewardDebt",
            "offset": 0,
            "slot": "1",
            "type": "t_int256"
          }
        ],
        "numberOfBytes": "64"
      },
      "t_uint128": {
        "encoding": "inplace",
        "label": "uint128",
        "numberOfBytes": "16"
      },
      "t_uint256": {
        "encoding": "inplace",
        "label": "uint256",
        "numberOfBytes": "32"
      },
      "t_uint64": {
        "encoding": "inplace",
        "label": "uint64",
        "numberOfBytes": "8"
      }
    }
  }
}