{
  "address": "0x5328e636c06e6CC64B96267350d00146C23f8a0D",
  "abi": [
    {
      "inputs": [
        {
          "internalType": "address",
          "name": "_factory",
          "type": "address"
        },
        {
          "internalType": "address",
          "name": "_WETH",
          "type": "address"
        }
      ],
      "stateMutability": "nonpayable",
      "type": "constructor"
    },
    {
      "inputs": [],
      "name": "WETH",
      "outputs": [
        {
          "internalType": "address",
          "name": "",
          "type": "address"
        }
      ],
      "stateMutability": "view",
      "type": "function"
    },
    {
      "inputs": [
        {
          "internalType": "address",
          "name": "tokenA",
          "type": "address"
        },
        {
          "internalType": "address",
          "name": "tokenB",
          "type": "address"
        },
        {
          "internalType": "uint256",
          "name": "amountADesired",
          "type": "uint256"
        },
        {
          "internalType": "uint256",
          "name": "amountBDesired",
          "type": "uint256"
        },
        {
          "internalType": "uint256",
          "name": "amountAMin",
          "type": "uint256"
        },
        {
          "internalType": "uint256",
          "name": "amountBMin",
          "type": "uint256"
        },
        {
          "internalType": "address",
          "name": "to",
          "type": "address"
        },
        {
          "internalType": "uint256",
          "name": "deadline",
          "type": "uint256"
        }
      ],
      "name": "addLiquidity",
      "outputs": [
        {
          "internalType": "uint256",
          "name": "amountA",
          "type": "uint256"
        },
        {
          "internalType": "uint256",
          "name": "amountB",
          "type": "uint256"
        },
        {
          "internalType": "uint256",
          "name": "liquidity",
          "type": "uint256"
        }
      ],
      "stateMutability": "nonpayable",
      "type": "function"
    },
    {
      "inputs": [
        {
          "internalType": "address",
          "name": "token",
          "type": "address"
        },
        {
          "internalType": "uint256",
          "name": "amountTokenDesired",
          "type": "uint256"
        },
        {
          "internalType": "uint256",
          "name": "amountTokenMin",
          "type": "uint256"
        },
        {
          "internalType": "uint256",
          "name": "amountETHMin",
          "type": "uint256"
        },
        {
          "internalType": "address",
          "name": "to",
          "type": "address"
        },
        {
          "internalType": "uint256",
          "name": "deadline",
          "type": "uint256"
        }
      ],
      "name": "addLiquidityETH",
      "outputs": [
        {
          "internalType": "uint256",
          "name": "amountToken",
          "type": "uint256"
        },
        {
          "internalType": "uint256",
          "name": "amountETH",
          "type": "uint256"
        },
        {
          "internalType": "uint256",
          "name": "liquidity",
          "type": "uint256"
        }
      ],
      "stateMutability": "payable",
      "type": "function"
    },
    {
      "inputs": [
        {
          "internalType": "address",
          "name": "token",
          "type": "address"
        },
        {
          "internalType": "uint256",
          "name": "amountTokenDesired",
          "type": "uint256"
        },
        {
          "internalType": "uint256",
          "name": "amountTokenMin",
          "type": "uint256"
        },
        {
          "internalType": "uint256",
          "name": "amountETHMin",
          "type": "uint256"
        },
        {
          "internalType": "address",
          "name": "to",
          "type": "address"
        },
        {
          "internalType": "uint256",
          "name": "deadline",
          "type": "uint256"
        }
      ],
      "name": "addLiquidityETHTemp",
      "outputs": [
        {
          "internalType": "uint256",
          "name": "amountToken",
          "type": "uint256"
        },
        {
          "internalType": "uint256",
          "name": "amountETH",
          "type": "uint256"
        },
        {
          "internalType": "address",
          "name": "pair",
          "type": "address"
        },
        {
          "internalType": "address",
          "name": "sender",
          "type": "address"
        }
      ],
      "stateMutability": "payable",
      "type": "function"
    },
    {
      "inputs": [],
      "name": "factory",
      "outputs": [
        {
          "internalType": "address",
          "name": "",
          "type": "address"
        }
      ],
      "stateMutability": "view",
      "type": "function"
    },
    {
      "inputs": [
        {
          "internalType": "uint256",
          "name": "amountOut",
          "type": "uint256"
        },
        {
          "internalType": "uint256",
          "name": "reserveIn",
          "type": "uint256"
        },
        {
          "internalType": "uint256",
          "name": "reserveOut",
          "type": "uint256"
        }
      ],
      "name": "getAmountIn",
      "outputs": [
        {
          "internalType": "uint256",
          "name": "amountIn",
          "type": "uint256"
        }
      ],
      "stateMutability": "pure",
      "type": "function"
    },
    {
      "inputs": [
        {
          "internalType": "uint256",
          "name": "amountIn",
          "type": "uint256"
        },
        {
          "internalType": "uint256",
          "name": "reserveIn",
          "type": "uint256"
        },
        {
          "internalType": "uint256",
          "name": "reserveOut",
          "type": "uint256"
        }
      ],
      "name": "getAmountOut",
      "outputs": [
        {
          "internalType": "uint256",
          "name": "amountOut",
          "type": "uint256"
        }
      ],
      "stateMutability": "pure",
      "type": "function"
    },
    {
      "inputs": [
        {
          "internalType": "uint256",
          "name": "amountOut",
          "type": "uint256"
        },
        {
          "internalType": "address[]",
          "name": "path",
          "type": "address[]"
        }
      ],
      "name": "getAmountsIn",
      "outputs": [
        {
          "internalType": "uint256[]",
          "name": "amounts",
          "type": "uint256[]"
        }
      ],
      "stateMutability": "view",
      "type": "function"
    },
    {
      "inputs": [
        {
          "internalType": "uint256",
          "name": "amountIn",
          "type": "uint256"
        },
        {
          "internalType": "address[]",
          "name": "path",
          "type": "address[]"
        }
      ],
      "name": "getAmountsOut",
      "outputs": [
        {
          "internalType": "uint256[]",
          "name": "amounts",
          "type": "uint256[]"
        }
      ],
      "stateMutability": "view",
      "type": "function"
    },
    {
      "inputs": [
        {
          "internalType": "uint256",
          "name": "amountA",
          "type": "uint256"
        },
        {
          "internalType": "uint256",
          "name": "reserveA",
          "type": "uint256"
        },
        {
          "internalType": "uint256",
          "name": "reserveB",
          "type": "uint256"
        }
      ],
      "name": "quote",
      "outputs": [
        {
          "internalType": "uint256",
          "name": "amountB",
          "type": "uint256"
        }
      ],
      "stateMutability": "pure",
      "type": "function"
    },
    {
      "inputs": [
        {
          "internalType": "address",
          "name": "tokenA",
          "type": "address"
        },
        {
          "internalType": "address",
          "name": "tokenB",
          "type": "address"
        },
        {
          "internalType": "uint256",
          "name": "liquidity",
          "type": "uint256"
        },
        {
          "internalType": "uint256",
          "name": "amountAMin",
          "type": "uint256"
        },
        {
          "internalType": "uint256",
          "name": "amountBMin",
          "type": "uint256"
        },
        {
          "internalType": "address",
          "name": "to",
          "type": "address"
        },
        {
          "internalType": "uint256",
          "name": "deadline",
          "type": "uint256"
        }
      ],
      "name": "removeLiquidity",
      "outputs": [
        {
          "internalType": "uint256",
          "name": "amountA",
          "type": "uint256"
        },
        {
          "internalType": "uint256",
          "name": "amountB",
          "type": "uint256"
        }
      ],
      "stateMutability": "nonpayable",
      "type": "function"
    },
    {
      "inputs": [
        {
          "internalType": "address",
          "name": "token",
          "type": "address"
        },
        {
          "internalType": "uint256",
          "name": "liquidity",
          "type": "uint256"
        },
        {
          "internalType": "uint256",
          "name": "amountTokenMin",
          "type": "uint256"
        },
        {
          "internalType": "uint256",
          "name": "amountETHMin",
          "type": "uint256"
        },
        {
          "internalType": "address",
          "name": "to",
          "type": "address"
        },
        {
          "internalType": "uint256",
          "name": "deadline",
          "type": "uint256"
        }
      ],
      "name": "removeLiquidityETH",
      "outputs": [
        {
          "internalType": "uint256",
          "name": "amountToken",
          "type": "uint256"
        },
        {
          "internalType": "uint256",
          "name": "amountETH",
          "type": "uint256"
        }
      ],
      "stateMutability": "nonpayable",
      "type": "function"
    },
    {
      "inputs": [
        {
          "internalType": "address",
          "name": "token",
          "type": "address"
        },
        {
          "internalType": "uint256",
          "name": "liquidity",
          "type": "uint256"
        },
        {
          "internalType": "uint256",
          "name": "amountTokenMin",
          "type": "uint256"
        },
        {
          "internalType": "uint256",
          "name": "amountETHMin",
          "type": "uint256"
        },
        {
          "internalType": "address",
          "name": "to",
          "type": "address"
        },
        {
          "internalType": "uint256",
          "name": "deadline",
          "type": "uint256"
        }
      ],
      "name": "removeLiquidityETHSupportingFeeOnTransferTokens",
      "outputs": [
        {
          "internalType": "uint256",
          "name": "amountETH",
          "type": "uint256"
        }
      ],
      "stateMutability": "nonpayable",
      "type": "function"
    },
    {
      "inputs": [
        {
          "internalType": "address",
          "name": "token",
          "type": "address"
        },
        {
          "internalType": "uint256",
          "name": "liquidity",
          "type": "uint256"
        },
        {
          "internalType": "uint256",
          "name": "amountTokenMin",
          "type": "uint256"
        },
        {
          "internalType": "uint256",
          "name": "amountETHMin",
          "type": "uint256"
        },
        {
          "internalType": "address",
          "name": "to",
          "type": "address"
        },
        {
          "internalType": "uint256",
          "name": "deadline",
          "type": "uint256"
        },
        {
          "internalType": "bool",
          "name": "approveMax",
          "type": "bool"
        },
        {
          "internalType": "uint8",
          "name": "v",
          "type": "uint8"
        },
        {
          "internalType": "bytes32",
          "name": "r",
          "type": "bytes32"
        },
        {
          "internalType": "bytes32",
          "name": "s",
          "type": "bytes32"
        }
      ],
      "name": "removeLiquidityETHWithPermit",
      "outputs": [
        {
          "internalType": "uint256",
          "name": "amountToken",
          "type": "uint256"
        },
        {
          "internalType": "uint256",
          "name": "amountETH",
          "type": "uint256"
        }
      ],
      "stateMutability": "nonpayable",
      "type": "function"
    },
    {
      "inputs": [
        {
          "internalType": "address",
          "name": "token",
          "type": "address"
        },
        {
          "internalType": "uint256",
          "name": "liquidity",
          "type": "uint256"
        },
        {
          "internalType": "uint256",
          "name": "amountTokenMin",
          "type": "uint256"
        },
        {
          "internalType": "uint256",
          "name": "amountETHMin",
          "type": "uint256"
        },
        {
          "internalType": "address",
          "name": "to",
          "type": "address"
        },
        {
          "internalType": "uint256",
          "name": "deadline",
          "type": "uint256"
        },
        {
          "internalType": "bool",
          "name": "approveMax",
          "type": "bool"
        },
        {
          "internalType": "uint8",
          "name": "v",
          "type": "uint8"
        },
        {
          "internalType": "bytes32",
          "name": "r",
          "type": "bytes32"
        },
        {
          "internalType": "bytes32",
          "name": "s",
          "type": "bytes32"
        }
      ],
      "name": "removeLiquidityETHWithPermitSupportingFeeOnTransferTokens",
      "outputs": [
        {
          "internalType": "uint256",
          "name": "amountETH",
          "type": "uint256"
        }
      ],
      "stateMutability": "nonpayable",
      "type": "function"
    },
    {
      "inputs": [
        {
          "internalType": "address",
          "name": "tokenA",
          "type": "address"
        },
        {
          "internalType": "address",
          "name": "tokenB",
          "type": "address"
        },
        {
          "internalType": "uint256",
          "name": "liquidity",
          "type": "uint256"
        },
        {
          "internalType": "uint256",
          "name": "amountAMin",
          "type": "uint256"
        },
        {
          "internalType": "uint256",
          "name": "amountBMin",
          "type": "uint256"
        },
        {
          "internalType": "address",
          "name": "to",
          "type": "address"
        },
        {
          "internalType": "uint256",
          "name": "deadline",
          "type": "uint256"
        },
        {
          "internalType": "bool",
          "name": "approveMax",
          "type": "bool"
        },
        {
          "internalType": "uint8",
          "name": "v",
          "type": "uint8"
        },
        {
          "internalType": "bytes32",
          "name": "r",
          "type": "bytes32"
        },
        {
          "internalType": "bytes32",
          "name": "s",
          "type": "bytes32"
        }
      ],
      "name": "removeLiquidityWithPermit",
      "outputs": [
        {
          "internalType": "uint256",
          "name": "amountA",
          "type": "uint256"
        },
        {
          "internalType": "uint256",
          "name": "amountB",
          "type": "uint256"
        }
      ],
      "stateMutability": "nonpayable",
      "type": "function"
    },
    {
      "inputs": [
        {
          "internalType": "uint256",
          "name": "amountOut",
          "type": "uint256"
        },
        {
          "internalType": "address[]",
          "name": "path",
          "type": "address[]"
        },
        {
          "internalType": "address",
          "name": "to",
          "type": "address"
        },
        {
          "internalType": "uint256",
          "name": "deadline",
          "type": "uint256"
        }
      ],
      "name": "swapETHForExactTokens",
      "outputs": [
        {
          "internalType": "uint256[]",
          "name": "amounts",
          "type": "uint256[]"
        }
      ],
      "stateMutability": "payable",
      "type": "function"
    },
    {
      "inputs": [
        {
          "internalType": "uint256",
          "name": "amountOutMin",
          "type": "uint256"
        },
        {
          "internalType": "address[]",
          "name": "path",
          "type": "address[]"
        },
        {
          "internalType": "address",
          "name": "to",
          "type": "address"
        },
        {
          "internalType": "uint256",
          "name": "deadline",
          "type": "uint256"
        }
      ],
      "name": "swapExactETHForTokens",
      "outputs": [
        {
          "internalType": "uint256[]",
          "name": "amounts",
          "type": "uint256[]"
        }
      ],
      "stateMutability": "payable",
      "type": "function"
    },
    {
      "inputs": [
        {
          "internalType": "uint256",
          "name": "amountOutMin",
          "type": "uint256"
        },
        {
          "internalType": "address[]",
          "name": "path",
          "type": "address[]"
        },
        {
          "internalType": "address",
          "name": "to",
          "type": "address"
        },
        {
          "internalType": "uint256",
          "name": "deadline",
          "type": "uint256"
        }
      ],
      "name": "swapExactETHForTokensSupportingFeeOnTransferTokens",
      "outputs": [],
      "stateMutability": "payable",
      "type": "function"
    },
    {
      "inputs": [
        {
          "internalType": "uint256",
          "name": "amountIn",
          "type": "uint256"
        },
        {
          "internalType": "uint256",
          "name": "amountOutMin",
          "type": "uint256"
        },
        {
          "internalType": "address[]",
          "name": "path",
          "type": "address[]"
        },
        {
          "internalType": "address",
          "name": "to",
          "type": "address"
        },
        {
          "internalType": "uint256",
          "name": "deadline",
          "type": "uint256"
        }
      ],
      "name": "swapExactTokensForETH",
      "outputs": [
        {
          "internalType": "uint256[]",
          "name": "amounts",
          "type": "uint256[]"
        }
      ],
      "stateMutability": "nonpayable",
      "type": "function"
    },
    {
      "inputs": [
        {
          "internalType": "uint256",
          "name": "amountIn",
          "type": "uint256"
        },
        {
          "internalType": "uint256",
          "name": "amountOutMin",
          "type": "uint256"
        },
        {
          "internalType": "address[]",
          "name": "path",
          "type": "address[]"
        },
        {
          "internalType": "address",
          "name": "to",
          "type": "address"
        },
        {
          "internalType": "uint256",
          "name": "deadline",
          "type": "uint256"
        }
      ],
      "name": "swapExactTokensForETHSupportingFeeOnTransferTokens",
      "outputs": [],
      "stateMutability": "nonpayable",
      "type": "function"
    },
    {
      "inputs": [
        {
          "internalType": "uint256",
          "name": "amountIn",
          "type": "uint256"
        },
        {
          "internalType": "uint256",
          "name": "amountOutMin",
          "type": "uint256"
        },
        {
          "internalType": "address[]",
          "name": "path",
          "type": "address[]"
        },
        {
          "internalType": "address",
          "name": "to",
          "type": "address"
        },
        {
          "internalType": "uint256",
          "name": "deadline",
          "type": "uint256"
        }
      ],
      "name": "swapExactTokensForTokens",
      "outputs": [
        {
          "internalType": "uint256[]",
          "name": "amounts",
          "type": "uint256[]"
        }
      ],
      "stateMutability": "nonpayable",
      "type": "function"
    },
    {
      "inputs": [
        {
          "internalType": "uint256",
          "name": "amountIn",
          "type": "uint256"
        },
        {
          "internalType": "uint256",
          "name": "amountOutMin",
          "type": "uint256"
        },
        {
          "internalType": "address[]",
          "name": "path",
          "type": "address[]"
        },
        {
          "internalType": "address",
          "name": "to",
          "type": "address"
        },
        {
          "internalType": "uint256",
          "name": "deadline",
          "type": "uint256"
        }
      ],
      "name": "swapExactTokensForTokensSupportingFeeOnTransferTokens",
      "outputs": [],
      "stateMutability": "nonpayable",
      "type": "function"
    },
    {
      "inputs": [
        {
          "internalType": "uint256",
          "name": "amountOut",
          "type": "uint256"
        },
        {
          "internalType": "uint256",
          "name": "amountInMax",
          "type": "uint256"
        },
        {
          "internalType": "address[]",
          "name": "path",
          "type": "address[]"
        },
        {
          "internalType": "address",
          "name": "to",
          "type": "address"
        },
        {
          "internalType": "uint256",
          "name": "deadline",
          "type": "uint256"
        }
      ],
      "name": "swapTokensForExactETH",
      "outputs": [
        {
          "internalType": "uint256[]",
          "name": "amounts",
          "type": "uint256[]"
        }
      ],
      "stateMutability": "nonpayable",
      "type": "function"
    },
    {
      "inputs": [
        {
          "internalType": "uint256",
          "name": "amountOut",
          "type": "uint256"
        },
        {
          "internalType": "uint256",
          "name": "amountInMax",
          "type": "uint256"
        },
        {
          "internalType": "address[]",
          "name": "path",
          "type": "address[]"
        },
        {
          "internalType": "address",
          "name": "to",
          "type": "address"
        },
        {
          "internalType": "uint256",
          "name": "deadline",
          "type": "uint256"
        }
      ],
      "name": "swapTokensForExactTokens",
      "outputs": [
        {
          "internalType": "uint256[]",
          "name": "amounts",
          "type": "uint256[]"
        }
      ],
      "stateMutability": "nonpayable",
      "type": "function"
    },
    {
      "stateMutability": "payable",
      "type": "receive"
    }
  ],
  "transactionHash": "0x24d0bab04ff87b442ec0ec4b4d349f072d7ca7744dd71f2bb8e986b658d99b6e",
  "args": [
    "0x219d8e3272E682A4Db4ab1C60bE3f0dA615648de",
    "0x3743eC0673453E5009310C727Ba4eaF7b3a1cc04"
  ],
  "solcInputHash": "fea31cb2c45ddae17ddcfe50b1fd262e",
  "bytecode": "0x60c060405234801561001057600080fd5b506040516200492a3803806200492a8339818101604052604081101561003557600080fd5b5080516020909101516001600160601b0319606092831b8116608052911b1660a05260805160601c60a05160601c61478c6200019e6000398061017a5280610d745280610daf5280610ea652806110c4528061144e52806115b452806119635280611a3e5280611b185280611be65280611d2c5280611db45280611ff0528061206b528061211f52806121eb528061228052806122f452806127d75280612a415280612a975280612acb5280612aed5280612b615280612cf75280612d4b5280612dca5280612f0d5280612f95525080610f34528061100b528061118a52806111c352806112fe52806114dc528061159252806117025280611c795280611de65280611f4052806123265280612564528061275c528061278552806127b552806129225280612a755280612d295280612e5d5280612fc7528061384d52806138905280613b6a5280613ce052806140c852806141a0528061422652806142d9525061478c6000f3fe60806040526004361061016a5760003560e01c80638803dbee116100d1578063c45a01551161008a578063e8e3370011610064578063e8e3370014610b68578063f305d71914610be8578063f79b0ea814610c2e578063fb3bdb4114610ca3576101a3565b8063c45a015514610a2b578063d06ca61f14610a40578063ded9382a14610af5576101a3565b80638803dbee146107fa578063ad5c464814610890578063ad615dec146108c1578063af2979eb146108f7578063b6f9de951461094a578063baa2abde146109ce576101a3565b80634a25d94a116101235780634a25d94a1461050b5780635b0d5984146105a15780635c11d79514610614578063791ac947146106aa5780637ff36ab51461074057806385f8c259146107c4576101a3565b806302751cec146101a8578063054d50d41461021457806318cbafe51461025c5780631f00ca74146103425780632195995c146103f757806338ed173914610475576101a3565b366101a357336001600160a01b037f000000000000000000000000000000000000000000000000000000000000000016146101a157fe5b005b600080fd5b3480156101b457600080fd5b506101fb600480360360c08110156101cb57600080fd5b506001600160a01b0381358116916020810135916040820135916060810135916080820135169060a00135610d27565b6040805192835260208301919091528051918290030190f35b34801561022057600080fd5b5061024a6004803603606081101561023757600080fd5b5080359060208101359060400135610e41565b60408051918252519081900360200190f35b34801561026857600080fd5b506102f2600480360360a081101561027f57600080fd5b813591602081013591810190606081016040820135600160201b8111156102a557600080fd5b8201836020820111156102b757600080fd5b803590602001918460208302840111600160201b831117156102d857600080fd5b91935091506001600160a01b038135169060200135610e56565b60408051602080825283518183015283519192839290830191858101910280838360005b8381101561032e578181015183820152602001610316565b505050509050019250505060405180910390f35b34801561034e57600080fd5b506102f26004803603604081101561036557600080fd5b81359190810190604081016020820135600160201b81111561038657600080fd5b82018360208201111561039857600080fd5b803590602001918460208302840111600160201b831117156103b957600080fd5b919080806020026020016040519081016040528093929190818152602001838360200280828437600092019190915250929550611183945050505050565b34801561040357600080fd5b506101fb600480360361016081101561041b57600080fd5b506001600160a01b038135811691602081013582169160408201359160608101359160808201359160a08101359091169060c08101359060e081013515159060ff61010082013516906101208101359061014001356111b9565b34801561048157600080fd5b506102f2600480360360a081101561049857600080fd5b813591602081013591810190606081016040820135600160201b8111156104be57600080fd5b8201836020820111156104d057600080fd5b803590602001918460208302840111600160201b831117156104f157600080fd5b91935091506001600160a01b0381351690602001356112b3565b34801561051757600080fd5b506102f2600480360360a081101561052e57600080fd5b813591602081013591810190606081016040820135600160201b81111561055457600080fd5b82018360208201111561056657600080fd5b803590602001918460208302840111600160201b8311171561058757600080fd5b91935091506001600160a01b0381351690602001356113fe565b3480156105ad57600080fd5b5061024a60048036036101408110156105c557600080fd5b506001600160a01b0381358116916020810135916040820135916060810135916080820135169060a08101359060c081013515159060ff60e0820135169061010081013590610120013561158a565b34801561062057600080fd5b506101a1600480360360a081101561063757600080fd5b813591602081013591810190606081016040820135600160201b81111561065d57600080fd5b82018360208201111561066f57600080fd5b803590602001918460208302840111600160201b8311171561069057600080fd5b91935091506001600160a01b038135169060200135611698565b3480156106b657600080fd5b506101a1600480360360a08110156106cd57600080fd5b813591602081013591810190606081016040820135600160201b8111156106f357600080fd5b82018360208201111561070557600080fd5b803590602001918460208302840111600160201b8311171561072657600080fd5b91935091506001600160a01b038135169060200135611915565b6102f26004803603608081101561075657600080fd5b81359190810190604081016020820135600160201b81111561077757600080fd5b82018360208201111561078957600080fd5b803590602001918460208302840111600160201b831117156107aa57600080fd5b91935091506001600160a01b038135169060200135611b9e565b3480156107d057600080fd5b5061024a600480360360608110156107e757600080fd5b5080359060208101359060400135611ee8565b34801561080657600080fd5b506102f2600480360360a081101561081d57600080fd5b813591602081013591810190606081016040820135600160201b81111561084357600080fd5b82018360208201111561085557600080fd5b803590602001918460208302840111600160201b8311171561087657600080fd5b91935091506001600160a01b038135169060200135611ef5565b34801561089c57600080fd5b506108a5611fee565b604080516001600160a01b039092168252519081900360200190f35b3480156108cd57600080fd5b5061024a600480360360608110156108e457600080fd5b5080359060208101359060400135612012565b34801561090357600080fd5b5061024a600480360360c081101561091a57600080fd5b506001600160a01b0381358116916020810135916040820135916060810135916080820135169060a0013561201f565b6101a16004803603608081101561096057600080fd5b81359190810190604081016020820135600160201b81111561098157600080fd5b82018360208201111561099357600080fd5b803590602001918460208302840111600160201b831117156109b457600080fd5b91935091506001600160a01b0381351690602001356121a5565b3480156109da57600080fd5b506101fb600480360360e08110156109f157600080fd5b506001600160a01b038135811691602081013582169160408201359160608101359160808201359160a08101359091169060c00135612516565b348015610a3757600080fd5b506108a561275a565b348015610a4c57600080fd5b506102f260048036036040811015610a6357600080fd5b81359190810190604081016020820135600160201b811115610a8457600080fd5b820183602082011115610a9657600080fd5b803590602001918460208302840111600160201b83111715610ab757600080fd5b91908080602002602001604051908101604052809392919081815260200183836020028082843760009201919091525092955061277e945050505050565b348015610b0157600080fd5b506101fb6004803603610140811015610b1957600080fd5b506001600160a01b0381358116916020810135916040820135916060810135916080820135169060a08101359060c081013515159060ff60e082013516906101008101359061012001356127ab565b348015610b7457600080fd5b50610bca6004803603610100811015610b8c57600080fd5b506001600160a01b038135811691602081013582169160408201359160608101359160808201359160a08101359160c0820135169060e001356128bf565b60408051938452602084019290925282820152519081900360600190f35b610bca600480360360c0811015610bfe57600080fd5b506001600160a01b0381358116916020810135916040820135916060810135916080820135169060a001356129f2565b610c74600480360360c0811015610c4457600080fd5b506001600160a01b0381358116916020810135916040820135916060810135916080820135169060a00135612ca7565b6040805194855260208501939093526001600160a01b0391821684840152166060830152519081900360800190f35b6102f260048036036080811015610cb957600080fd5b81359190810190604081016020820135600160201b811115610cda57600080fd5b820183602082011115610cec57600080fd5b803590602001918460208302840111600160201b83111715610d0d57600080fd5b91935091506001600160a01b038135169060200135612d82565b6000808242811015610d6e576040805162461bcd60e51b81526020600482015260186024820152600080516020614737833981519152604482015290519081900360640190fd5b610d9d897f00000000000000000000000000000000000000000000000000000000000000008a8a8a308a612516565b9093509150610dad8986856130fb565b7f00000000000000000000000000000000000000000000000000000000000000006001600160a01b0316632e1a7d4d836040518263ffffffff1660e01b815260040180828152602001915050600060405180830381600087803b158015610e1357600080fd5b505af1158015610e27573d6000803e3d6000fd5b50505050610e358583613265565b50965096945050505050565b6000610e4e84848461335d565b949350505050565b60608142811015610e9c576040805162461bcd60e51b81526020600482015260186024820152600080516020614737833981519152604482015290519081900360640190fd5b6001600160a01b037f00000000000000000000000000000000000000000000000000000000000000001686866000198101818110610ed657fe5b905060200201356001600160a01b03166001600160a01b031614610f2f576040805162461bcd60e51b815260206004820152601d6024820152600080516020614654833981519152604482015290519081900360640190fd5b610f8d7f00000000000000000000000000000000000000000000000000000000000000008988888080602002602001604051908101604052809392919081815260200183836020028082843760009201919091525061343592505050565b91508682600184510381518110610fa057fe5b60200260200101511015610fe55760405162461bcd60e51b815260040180806020018281038252602b8152602001806146bd602b913960400191505060405180910390fd5b61108386866000818110610ff557fe5b905060200201356001600160a01b0316336110697f00000000000000000000000000000000000000000000000000000000000000008a8a600081811061103757fe5b905060200201356001600160a01b03168b8b600181811061105457fe5b905060200201356001600160a01b0316613581565b8560008151811061107657fe5b6020026020010151613641565b6110c28287878080602002602001604051908101604052809392919081815260200183836020028082843760009201919091525030925061379e915050565b7f00000000000000000000000000000000000000000000000000000000000000006001600160a01b0316632e1a7d4d8360018551038151811061110157fe5b60200260200101516040518263ffffffff1660e01b815260040180828152602001915050600060405180830381600087803b15801561113f57600080fd5b505af1158015611153573d6000803e3d6000fd5b50505050611178848360018551038151811061116b57fe5b6020026020010151613265565b509695505050505050565b60606111b07f000000000000000000000000000000000000000000000000000000000000000084846139db565b90505b92915050565b60008060006111e97f00000000000000000000000000000000000000000000000000000000000000008f8f613581565b90506000876111f8578c6111fc565b6000195b6040805163d505accf60e01b815233600482015230602482015260448101839052606481018c905260ff8a16608482015260a4810189905260c4810188905290519192506001600160a01b0384169163d505accf9160e48082019260009290919082900301818387803b15801561127257600080fd5b505af1158015611286573d6000803e3d6000fd5b505050506112998f8f8f8f8f8f8f612516565b809450819550505050509b509b9950505050505050505050565b606081428110156112f9576040805162461bcd60e51b81526020600482015260186024820152600080516020614737833981519152604482015290519081900360640190fd5b6113577f00000000000000000000000000000000000000000000000000000000000000008988888080602002602001604051908101604052809392919081815260200183836020028082843760009201919091525061343592505050565b9150868260018451038151811061136a57fe5b602002602001015110156113af5760405162461bcd60e51b815260040180806020018281038252602b8152602001806146bd602b913960400191505060405180910390fd5b6113bf86866000818110610ff557fe5b6111788287878080602002602001604051908101604052809392919081815260200183836020028082843760009201919091525089925061379e915050565b60608142811015611444576040805162461bcd60e51b81526020600482015260186024820152600080516020614737833981519152604482015290519081900360640190fd5b6001600160a01b037f0000000000000000000000000000000000000000000000000000000000000000168686600019810181811061147e57fe5b905060200201356001600160a01b03166001600160a01b0316146114d7576040805162461bcd60e51b815260206004820152601d6024820152600080516020614654833981519152604482015290519081900360640190fd5b6115357f0000000000000000000000000000000000000000000000000000000000000000898888808060200260200160405190810160405280939291908181526020018383602002808284376000920191909152506139db92505050565b9150868260008151811061154557fe5b60200260200101511115610fe55760405162461bcd60e51b815260040180806020018281038252602781526020018061462d6027913960400191505060405180910390fd5b6000806115d87f00000000000000000000000000000000000000000000000000000000000000008d7f0000000000000000000000000000000000000000000000000000000000000000613581565b90506000866115e7578b6115eb565b6000195b6040805163d505accf60e01b815233600482015230602482015260448101839052606481018b905260ff8916608482015260a4810188905260c4810187905290519192506001600160a01b0384169163d505accf9160e48082019260009290919082900301818387803b15801561166157600080fd5b505af1158015611675573d6000803e3d6000fd5b505050506116878d8d8d8d8d8d61201f565b9d9c50505050505050505050505050565b80428110156116dc576040805162461bcd60e51b81526020600482015260186024820152600080516020614737833981519152604482015290519081900360640190fd5b611751858560008181106116ec57fe5b905060200201356001600160a01b03163361174b7f00000000000000000000000000000000000000000000000000000000000000008989600081811061172e57fe5b905060200201356001600160a01b03168a8a600181811061105457fe5b8a613641565b60008585600019810181811061176357fe5b905060200201356001600160a01b03166001600160a01b03166370a08231856040518263ffffffff1660e01b815260040180826001600160a01b0316815260200191505060206040518083038186803b1580156117bf57600080fd5b505afa1580156117d3573d6000803e3d6000fd5b505050506040513d60208110156117e957600080fd5b5051604080516020888102828101820190935288825292935061182b929091899189918291850190849080828437600092019190915250889250613b13915050565b866118ce828888600019810181811061184057fe5b905060200201356001600160a01b03166001600160a01b03166370a08231886040518263ffffffff1660e01b815260040180826001600160a01b0316815260200191505060206040518083038186803b15801561189c57600080fd5b505afa1580156118b0573d6000803e3d6000fd5b505050506040513d60208110156118c657600080fd5b505190613e15565b101561190b5760405162461bcd60e51b815260040180806020018281038252602b8152602001806146bd602b913960400191505060405180910390fd5b5050505050505050565b8042811015611959576040805162461bcd60e51b81526020600482015260186024820152600080516020614737833981519152604482015290519081900360640190fd5b6001600160a01b037f0000000000000000000000000000000000000000000000000000000000000000168585600019810181811061199357fe5b905060200201356001600160a01b03166001600160a01b0316146119ec576040805162461bcd60e51b815260206004820152601d6024820152600080516020614654833981519152604482015290519081900360640190fd5b6119fc858560008181106116ec57fe5b611a3a858580806020026020016040519081016040528093929190818152602001838360200280828437600092019190915250309250613b13915050565b60007f00000000000000000000000000000000000000000000000000000000000000006001600160a01b03166370a08231306040518263ffffffff1660e01b815260040180826001600160a01b0316815260200191505060206040518083038186803b158015611aa957600080fd5b505afa158015611abd573d6000803e3d6000fd5b505050506040513d6020811015611ad357600080fd5b5051905086811015611b165760405162461bcd60e51b815260040180806020018281038252602b8152602001806146bd602b913960400191505060405180910390fd5b7f00000000000000000000000000000000000000000000000000000000000000006001600160a01b0316632e1a7d4d826040518263ffffffff1660e01b815260040180828152602001915050600060405180830381600087803b158015611b7c57600080fd5b505af1158015611b90573d6000803e3d6000fd5b5050505061190b8482613265565b60608142811015611be4576040805162461bcd60e51b81526020600482015260186024820152600080516020614737833981519152604482015290519081900360640190fd5b7f00000000000000000000000000000000000000000000000000000000000000006001600160a01b031686866000818110611c1b57fe5b905060200201356001600160a01b03166001600160a01b031614611c74576040805162461bcd60e51b815260206004820152601d6024820152600080516020614654833981519152604482015290519081900360640190fd5b611cd27f00000000000000000000000000000000000000000000000000000000000000003488888080602002602001604051908101604052809392919081815260200183836020028082843760009201919091525061343592505050565b91508682600184510381518110611ce557fe5b60200260200101511015611d2a5760405162461bcd60e51b815260040180806020018281038252602b8152602001806146bd602b913960400191505060405180910390fd5b7f00000000000000000000000000000000000000000000000000000000000000006001600160a01b031663d0e30db083600081518110611d6657fe5b60200260200101516040518263ffffffff1660e01b81526004016000604051808303818588803b158015611d9957600080fd5b505af1158015611dad573d6000803e3d6000fd5b50505050507f00000000000000000000000000000000000000000000000000000000000000006001600160a01b031663a9059cbb611e127f00000000000000000000000000000000000000000000000000000000000000008989600081811061172e57fe5b84600081518110611e1f57fe5b60200260200101516040518363ffffffff1660e01b815260040180836001600160a01b0316815260200182815260200192505050602060405180830381600087803b158015611e6d57600080fd5b505af1158015611e81573d6000803e3d6000fd5b505050506040513d6020811015611e9757600080fd5b5051611e9f57fe5b611ede8287878080602002602001604051908101604052809392919081815260200183836020028082843760009201919091525089925061379e915050565b5095945050505050565b6000610e4e848484613e65565b60608142811015611f3b576040805162461bcd60e51b81526020600482015260186024820152600080516020614737833981519152604482015290519081900360640190fd5b611f997f0000000000000000000000000000000000000000000000000000000000000000898888808060200260200160405190810160405280939291908181526020018383602002808284376000920191909152506139db92505050565b91508682600081518110611fa957fe5b602002602001015111156113af5760405162461bcd60e51b815260040180806020018281038252602781526020018061462d6027913960400191505060405180910390fd5b7f000000000000000000000000000000000000000000000000000000000000000081565b6000610e4e848484613f3d565b60008142811015612065576040805162461bcd60e51b81526020600482015260186024820152600080516020614737833981519152604482015290519081900360640190fd5b612094887f00000000000000000000000000000000000000000000000000000000000000008989893089612516565b90508092505061211d88858a6001600160a01b03166370a08231306040518263ffffffff1660e01b815260040180826001600160a01b0316815260200191505060206040518083038186803b1580156120ec57600080fd5b505afa158015612100573d6000803e3d6000fd5b505050506040513d602081101561211657600080fd5b50516130fb565b7f00000000000000000000000000000000000000000000000000000000000000006001600160a01b0316632e1a7d4d836040518263ffffffff1660e01b815260040180828152602001915050600060405180830381600087803b15801561218357600080fd5b505af1158015612197573d6000803e3d6000fd5b505050506111788483613265565b80428110156121e9576040805162461bcd60e51b81526020600482015260186024820152600080516020614737833981519152604482015290519081900360640190fd5b7f00000000000000000000000000000000000000000000000000000000000000006001600160a01b03168585600081811061222057fe5b905060200201356001600160a01b03166001600160a01b031614612279576040805162461bcd60e51b815260206004820152601d6024820152600080516020614654833981519152604482015290519081900360640190fd5b60003490507f00000000000000000000000000000000000000000000000000000000000000006001600160a01b031663d0e30db0826040518263ffffffff1660e01b81526004016000604051808303818588803b1580156122d957600080fd5b505af11580156122ed573d6000803e3d6000fd5b50505050507f00000000000000000000000000000000000000000000000000000000000000006001600160a01b031663a9059cbb6123527f00000000000000000000000000000000000000000000000000000000000000008989600081811061172e57fe5b836040518363ffffffff1660e01b815260040180836001600160a01b0316815260200182815260200192505050602060405180830381600087803b15801561239957600080fd5b505af11580156123ad573d6000803e3d6000fd5b505050506040513d60208110156123c357600080fd5b50516123cb57fe5b6000868660001981018181106123dd57fe5b905060200201356001600160a01b03166001600160a01b03166370a08231866040518263ffffffff1660e01b815260040180826001600160a01b0316815260200191505060206040518083038186803b15801561243957600080fd5b505afa15801561244d573d6000803e3d6000fd5b505050506040513d602081101561246357600080fd5b505160408051602089810282810182019093528982529293506124a59290918a918a918291850190849080828437600092019190915250899250613b13915050565b876118ce82898960001981018181106124ba57fe5b905060200201356001600160a01b03166001600160a01b03166370a08231896040518263ffffffff1660e01b815260040180826001600160a01b0316815260200191505060206040518083038186803b15801561189c57600080fd5b600080824281101561255d576040805162461bcd60e51b81526020600482015260186024820152600080516020614737833981519152604482015290519081900360640190fd5b600061258a7f00000000000000000000000000000000000000000000000000000000000000008c8c613581565b604080516323b872dd60e01b81523360048201526001600160a01b03831660248201819052604482018d9052915192935090916323b872dd916064808201926020929091908290030181600087803b1580156125e557600080fd5b505af11580156125f9573d6000803e3d6000fd5b505050506040513d602081101561260f57600080fd5b50506040805163226bf2d160e21b81526001600160a01b03888116600483015282516000938493928616926389afcb44926024808301939282900301818787803b15801561265c57600080fd5b505af1158015612670573d6000803e3d6000fd5b505050506040513d604081101561268657600080fd5b508051602090910151909250905060006126a08e8e613fe3565b509050806001600160a01b03168e6001600160a01b0316146126c35781836126c6565b82825b90975095508a87101561270a5760405162461bcd60e51b81526004018080602001828103825260268152602001806146746026913960400191505060405180910390fd5b898610156127495760405162461bcd60e51b81526004018080602001828103825260268152602001806145ba6026913960400191505060405180910390fd5b505050505097509795505050505050565b7f000000000000000000000000000000000000000000000000000000000000000081565b60606111b07f00000000000000000000000000000000000000000000000000000000000000008484613435565b60008060006127fb7f00000000000000000000000000000000000000000000000000000000000000008e7f0000000000000000000000000000000000000000000000000000000000000000613581565b905060008761280a578c61280e565b6000195b6040805163d505accf60e01b815233600482015230602482015260448101839052606481018c905260ff8a16608482015260a4810189905260c4810188905290519192506001600160a01b0384169163d505accf9160e48082019260009290919082900301818387803b15801561288457600080fd5b505af1158015612898573d6000803e3d6000fd5b505050506128aa8e8e8e8e8e8e610d27565b909f909e509c50505050505050505050505050565b60008060008342811015612908576040805162461bcd60e51b81526020600482015260186024820152600080516020614737833981519152604482015290519081900360640190fd5b6129168c8c8c8c8c8c6140c1565b909450925060006129487f00000000000000000000000000000000000000000000000000000000000000008e8e613581565b90506129568d338388613641565b6129628c338387613641565b806001600160a01b0316636a627842886040518263ffffffff1660e01b815260040180826001600160a01b03168152602001915050602060405180830381600087803b1580156129b157600080fd5b505af11580156129c5573d6000803e3d6000fd5b505050506040513d60208110156129db57600080fd5b5051949d939c50939a509198505050505050505050565b60008060008342811015612a3b576040805162461bcd60e51b81526020600482015260186024820152600080516020614737833981519152604482015290519081900360640190fd5b612a698a7f00000000000000000000000000000000000000000000000000000000000000008b348c8c6140c1565b90945092506000612abb7f00000000000000000000000000000000000000000000000000000000000000008c7f0000000000000000000000000000000000000000000000000000000000000000613581565b9050612ac98b338388613641565b7f0000000000000000000000000000000000000000000000000000000000000000507f00000000000000000000000000000000000000000000000000000000000000006001600160a01b031663d0e30db0856040518263ffffffff1660e01b81526004016000604051808303818588803b158015612b4657600080fd5b505af1158015612b5a573d6000803e3d6000fd5b50505050507f00000000000000000000000000000000000000000000000000000000000000006001600160a01b031663a9059cbb82866040518363ffffffff1660e01b815260040180836001600160a01b0316815260200182815260200192505050602060405180830381600087803b158015612bd657600080fd5b505af1158015612bea573d6000803e3d6000fd5b505050506040513d6020811015612c0057600080fd5b5051612c0857fe5b806001600160a01b0316636a627842886040518263ffffffff1660e01b815260040180826001600160a01b03168152602001915050602060405180830381600087803b158015612c5757600080fd5b505af1158015612c6b573d6000803e3d6000fd5b505050506040513d6020811015612c8157600080fd5b5051925034841015612c9957612c9933853403613265565b505096509650969350505050565b6000806000808442811015612cf1576040805162461bcd60e51b81526020600482015260186024820152600080516020614737833981519152604482015290519081900360640190fd5b612d1f8b7f00000000000000000000000000000000000000000000000000000000000000008c348d8d6140c1565b9095509350612d6f7f00000000000000000000000000000000000000000000000000000000000000008c7f0000000000000000000000000000000000000000000000000000000000000000613581565b9250339150509650965096509692505050565b60608142811015612dc8576040805162461bcd60e51b81526020600482015260186024820152600080516020614737833981519152604482015290519081900360640190fd5b7f00000000000000000000000000000000000000000000000000000000000000006001600160a01b031686866000818110612dff57fe5b905060200201356001600160a01b03166001600160a01b031614612e58576040805162461bcd60e51b815260206004820152601d6024820152600080516020614654833981519152604482015290519081900360640190fd5b612eb67f0000000000000000000000000000000000000000000000000000000000000000888888808060200260200160405190810160405280939291908181526020018383602002808284376000920191909152506139db92505050565b91503482600081518110612ec657fe5b60200260200101511115612f0b5760405162461bcd60e51b815260040180806020018281038252602781526020018061462d6027913960400191505060405180910390fd5b7f00000000000000000000000000000000000000000000000000000000000000006001600160a01b031663d0e30db083600081518110612f4757fe5b60200260200101516040518263ffffffff1660e01b81526004016000604051808303818588803b158015612f7a57600080fd5b505af1158015612f8e573d6000803e3d6000fd5b50505050507f00000000000000000000000000000000000000000000000000000000000000006001600160a01b031663a9059cbb612ff37f00000000000000000000000000000000000000000000000000000000000000008989600081811061172e57fe5b8460008151811061300057fe5b60200260200101516040518363ffffffff1660e01b815260040180836001600160a01b0316815260200182815260200192505050602060405180830381600087803b15801561304e57600080fd5b505af1158015613062573d6000803e3d6000fd5b505050506040513d602081101561307857600080fd5b505161308057fe5b6130bf8287878080602002602001604051908101604052809392919081815260200183836020028082843760009201919091525089925061379e915050565b816000815181106130cc57fe5b6020026020010151341115611ede57611ede33836000815181106130ec57fe5b60200260200101513403613265565b604080516001600160a01b038481166024830152604480830185905283518084039091018152606490920183526020820180516001600160e01b031663a9059cbb60e01b178152925182516000946060949389169392918291908083835b602083106131785780518252601f199092019160209182019101613159565b6001836020036101000a0380198251168184511680821785525050505050509050019150506000604051808303816000865af19150503d80600081146131da576040519150601f19603f3d011682016040523d82523d6000602084013e6131df565b606091505b509150915081801561320d57508051158061320d575080806020019051602081101561320a57600080fd5b50515b61325e576040805162461bcd60e51b815260206004820152601f60248201527f5472616e7366657248656c7065723a205452414e534645525f4641494c454400604482015290519081900360640190fd5b5050505050565b604080516000808252602082019092526001600160a01b0384169083906040518082805190602001908083835b602083106132b15780518252601f199092019160209182019101613292565b6001836020036101000a03801982511681845116808217855250505050505090500191505060006040518083038185875af1925050503d8060008114613313576040519150601f19603f3d011682016040523d82523d6000602084013e613318565b606091505b50509050806133585760405162461bcd60e51b815260040180806020018281038252602381526020018061469a6023913960400191505060405180910390fd5b505050565b600080841161339d5760405162461bcd60e51b815260040180806020018281038252602b81526020018061470c602b913960400191505060405180910390fd5b6000831180156133ad5750600082115b6133e85760405162461bcd60e51b81526004018080602001828103825260288152602001806145e06028913960400191505060405180910390fd5b60006133f6856103e56143ef565b9050600061340482856143ef565b9050600061341e83613418886103e86143ef565b90614452565b905080828161342957fe5b04979650505050505050565b606060028251101561348e576040805162461bcd60e51b815260206004820152601e60248201527f556e697377617056324c6962726172793a20494e56414c49445f504154480000604482015290519081900360640190fd5b815167ffffffffffffffff811180156134a657600080fd5b506040519080825280602002602001820160405280156134d0578160200160208202803683370190505b50905082816000815181106134e157fe5b60200260200101818152505060005b6001835103811015613579576000806135338786858151811061350f57fe5b602002602001015187866001018151811061352657fe5b60200260200101516144a1565b9150915061355584848151811061354657fe5b6020026020010151838361335d565b84846001018151811061356457fe5b602090810291909101015250506001016134f0565b509392505050565b60008060006135908585613fe3565b604080516bffffffffffffffffffffffff19606094851b811660208084019190915293851b81166034830152825160288184030181526048830184528051908501206001600160f81b031960688401529a90941b9093166069840152607d8301989098527f2dbeb2ac7fec1a0ca22f2f2facac2c094afa2c7eafa87a518d7d4a6e37f514e8609d808401919091528851808403909101815260bd909201909752805196019590952095945050505050565b604080516001600160a01b0385811660248301528481166044830152606480830185905283518084039091018152608490920183526020820180516001600160e01b03166323b872dd60e01b17815292518251600094606094938a169392918291908083835b602083106136c65780518252601f1990920191602091820191016136a7565b6001836020036101000a0380198251168184511680821785525050505050509050019150506000604051808303816000865af19150503d8060008114613728576040519150601f19603f3d011682016040523d82523d6000602084013e61372d565b606091505b509150915081801561375b57508051158061375b575080806020019051602081101561375857600080fd5b50515b6137965760405162461bcd60e51b81526004018080602001828103825260248152602001806146e86024913960400191505060405180910390fd5b505050505050565b60005b60018351038110156139d5576000808483815181106137bc57fe5b60200260200101518584600101815181106137d357fe5b60200260200101519150915060006137eb8383613fe3565b50905060008785600101815181106137ff57fe5b60200260200101519050600080836001600160a01b0316866001600160a01b03161461382d57826000613831565b6000835b91509150600060028a510388106138485788613889565b6138897f0000000000000000000000000000000000000000000000000000000000000000878c8b6002018151811061387c57fe5b6020026020010151613581565b90506138b67f00000000000000000000000000000000000000000000000000000000000000008888613581565b6001600160a01b031663022c0d9f84848460006040519080825280601f01601f1916602001820160405280156138f3576020820181803683370190505b506040518563ffffffff1660e01b815260040180858152602001848152602001836001600160a01b0316815260200180602001828103825283818151815260200191508051906020019080838360005b8381101561395b578181015183820152602001613943565b50505050905090810190601f1680156139885780820380516001836020036101000a031916815260200191505b5095505050505050600060405180830381600087803b1580156139aa57600080fd5b505af11580156139be573d6000803e3d6000fd5b5050600190990198506137a1975050505050505050565b50505050565b6060600282511015613a34576040805162461bcd60e51b815260206004820152601e60248201527f556e697377617056324c6962726172793a20494e56414c49445f504154480000604482015290519081900360640190fd5b815167ffffffffffffffff81118015613a4c57600080fd5b50604051908082528060200260200182016040528015613a76578160200160208202803683370190505b5090508281600183510381518110613a8a57fe5b60209081029190910101528151600019015b801561357957600080613acc87866001860381518110613ab857fe5b602002602001015187868151811061352657fe5b91509150613aee848481518110613adf57fe5b60200260200101518383613e65565b846001850381518110613afd57fe5b6020908102919091010152505060001901613a9c565b60005b600183510381101561335857600080848381518110613b3157fe5b6020026020010151858460010181518110613b4857fe5b6020026020010151915091506000613b608383613fe3565b5090506000613b907f00000000000000000000000000000000000000000000000000000000000000008585613581565b9050600080600080846001600160a01b0316630902f1ac6040518163ffffffff1660e01b815260040160606040518083038186803b158015613bd157600080fd5b505afa158015613be5573d6000803e3d6000fd5b505050506040513d6060811015613bfb57600080fd5b5080516020909101516001600160701b0391821693501690506000806001600160a01b038a811690891614613c31578284613c34565b83835b91509150613c89828b6001600160a01b03166370a082318a6040518263ffffffff1660e01b815260040180826001600160a01b0316815260200191505060206040518083038186803b15801561189c57600080fd5b9550613c9686838361335d565b945050505050600080856001600160a01b0316886001600160a01b031614613cc057826000613cc4565b6000835b91509150600060028c51038a10613cdb578a613d0f565b613d0f7f0000000000000000000000000000000000000000000000000000000000000000898e8d6002018151811061387c57fe5b604080516000808252602082019283905263022c0d9f60e01b835260248201878152604483018790526001600160a01b038086166064850152608060848501908152845160a48601819052969750908c169563022c0d9f958a958a958a9591949193919260c486019290918190849084905b83811015613d99578181015183820152602001613d81565b50505050905090810190601f168015613dc65780820380516001836020036101000a031916815260200191505b5095505050505050600060405180830381600087803b158015613de857600080fd5b505af1158015613dfc573d6000803e3d6000fd5b50506001909b019a50613b169950505050505050505050565b808203828111156111b3576040805162461bcd60e51b815260206004820152601560248201527464732d6d6174682d7375622d756e646572666c6f7760581b604482015290519081900360640190fd5b6000808411613ea55760405162461bcd60e51b815260040180806020018281038252602c815260200180614569602c913960400191505060405180910390fd5b600083118015613eb55750600082115b613ef05760405162461bcd60e51b81526004018080602001828103825260288152602001806145e06028913960400191505060405180910390fd5b6000613f086103e8613f0286886143ef565b906143ef565b90506000613f1c6103e5613f028689613e15565b9050613f336001828481613f2c57fe5b0490614452565b9695505050505050565b6000808411613f7d5760405162461bcd60e51b81526004018080602001828103825260258152602001806146086025913960400191505060405180910390fd5b600083118015613f8d5750600082115b613fc85760405162461bcd60e51b81526004018080602001828103825260288152602001806145e06028913960400191505060405180910390fd5b82613fd385846143ef565b81613fda57fe5b04949350505050565b600080826001600160a01b0316846001600160a01b031614156140375760405162461bcd60e51b81526004018080602001828103825260258152602001806145956025913960400191505060405180910390fd5b826001600160a01b0316846001600160a01b03161061405757828461405a565b83835b90925090506001600160a01b0382166140ba576040805162461bcd60e51b815260206004820152601e60248201527f556e697377617056324c6962726172793a205a45524f5f414444524553530000604482015290519081900360640190fd5b9250929050565b60008060007f00000000000000000000000000000000000000000000000000000000000000006001600160a01b031663e6a439058a8a6040518363ffffffff1660e01b815260040180836001600160a01b03168152602001826001600160a01b031681526020019250505060206040518083038186803b15801561414457600080fd5b505afa158015614158573d6000803e3d6000fd5b505050506040513d602081101561416e57600080fd5b50516040805163e6a4390560e01b81526001600160a01b038c811660048301528b8116602483015291519293506000927f00000000000000000000000000000000000000000000000000000000000000009092169163e6a4390591604480820192602092909190829003018186803b1580156141e957600080fd5b505afa1580156141fd573d6000803e3d6000fd5b505050506040513d602081101561421357600080fd5b50516001600160a01b031614156142d1577f00000000000000000000000000000000000000000000000000000000000000006001600160a01b031663c9c653968a8a6040518363ffffffff1660e01b815260040180836001600160a01b03168152602001826001600160a01b0316815260200192505050602060405180830381600087803b1580156142a457600080fd5b505af11580156142b8573d6000803e3d6000fd5b505050506040513d60208110156142ce57600080fd5b50505b6000806142ff7f00000000000000000000000000000000000000000000000000000000000000008c8c6144a1565b91509150816000148015614311575080155b15614321578894508793506143e1565b600061432e8a8484613f3d565b905088811161438157868110156143765760405162461bcd60e51b81526004018080602001828103825260268152602001806145ba6026913960400191505060405180910390fd5b8995509350836143df565b600061438e8a8486613f3d565b90508a81111561439a57fe5b888110156143d95760405162461bcd60e51b81526004018080602001828103825260268152602001806146746026913960400191505060405180910390fd5b95508894505b505b505050965096945050505050565b600081158061440a5750508082028282828161440757fe5b04145b6111b3576040805162461bcd60e51b815260206004820152601460248201527364732d6d6174682d6d756c2d6f766572666c6f7760601b604482015290519081900360640190fd5b808201828110156111b3576040805162461bcd60e51b815260206004820152601460248201527364732d6d6174682d6164642d6f766572666c6f7760601b604482015290519081900360640190fd5b60008060006144b08585613fe3565b5090506000806144c1888888613581565b6001600160a01b0316630902f1ac6040518163ffffffff1660e01b815260040160606040518083038186803b1580156144f957600080fd5b505afa15801561450d573d6000803e3d6000fd5b505050506040513d606081101561452357600080fd5b5080516020909101516001600160701b0391821693501690506001600160a01b0387811690841614614556578082614559565b81815b9099909850965050505050505056fe556e697377617056324c6962726172793a20494e53554646494349454e545f4f55545055545f414d4f554e54556e697377617056324c6962726172793a204944454e544943414c5f414444524553534553556e69737761705632526f757465723a20494e53554646494349454e545f425f414d4f554e54556e697377617056324c6962726172793a20494e53554646494349454e545f4c4951554944495459556e697377617056324c6962726172793a20494e53554646494349454e545f414d4f554e54556e69737761705632526f757465723a204558434553534956455f494e5055545f414d4f554e54556e69737761705632526f757465723a20494e56414c49445f50415448000000556e69737761705632526f757465723a20494e53554646494349454e545f415f414d4f554e545472616e7366657248656c7065723a204554485f5452414e534645525f4641494c4544556e69737761705632526f757465723a20494e53554646494349454e545f4f55545055545f414d4f554e545472616e7366657248656c7065723a205452414e534645525f46524f4d5f4641494c4544556e697377617056324c6962726172793a20494e53554646494349454e545f494e5055545f414d4f554e54556e69737761705632526f757465723a20455850495245440000000000000000a2646970667358221220f0ba62d4f63200221512a09992697cebe74603bd941c1f76ae652b8e43bb476064736f6c634300060c0033",
  "devdoc": {
    "kind": "dev",
    "methods": {},
    "version": 1
  },
  "userdoc": {
    "kind": "user",
    "methods": {},
    "version": 1
  },
  "storageLayout": {
    "storage": [],
    "types": null
  }
}